{"contracts/AMM.sol":{"AMM":{"abi":[{"inputs":[{"internalType":"address","name":"_token0","type":"address"},{"internalType":"address","name":"_token1","type":"address"}],"stateMutability":"nonpayable","type":"constructor"},{"inputs":[],"name":"PRBMathSD59x18__DivInputTooSmall","type":"error"},{"inputs":[{"internalType":"uint256","name":"rAbs","type":"uint256"}],"name":"PRBMathSD59x18__DivOverflow","type":"error"},{"inputs":[{"internalType":"uint256","name":"prod1","type":"uint256"},{"internalType":"uint256","name":"denominator","type":"uint256"}],"name":"PRBMath__MulDivOverflow","type":"error"},{"inputs":[{"internalType":"uint256","name":"_amount0","type":"uint256"},{"internalType":"uint256","name":"_amount1","type":"uint256"}],"name":"addLiquidity","outputs":[{"internalType":"uint256","name":"shares","type":"uint256"}],"stateMutability":"nonpayable","type":"function"},{"inputs":[{"internalType":"address","name":"","type":"address"}],"name":"balanceOf","outputs":[{"internalType":"uint256","name":"","type":"uint256"}],"stateMutability":"view","type":"function"},{"inputs":[{"internalType":"int256","name":"a","type":"int256"},{"internalType":"int256","name":"b","type":"int256"}],"name":"div","outputs":[],"stateMutability":"nonpayable","type":"function"},{"inputs":[{"internalType":"uint256","name":"_shares","type":"uint256"}],"name":"removeLiquidity","outputs":[{"internalType":"uint256","name":"d0","type":"uint256"},{"internalType":"uint256","name":"d1","type":"uint256"}],"stateMutability":"nonpayable","type":"function"},{"inputs":[],"name":"reserve0","outputs":[{"internalType":"uint256","name":"","type":"uint256"}],"stateMutability":"view","type":"function"},{"inputs":[],"name":"reserve1","outputs":[{"internalType":"uint256","name":"","type":"uint256"}],"stateMutability":"view","type":"function"},{"inputs":[{"internalType":"address","name":"_tokenIn","type":"address"},{"internalType":"uint256","name":"_amountIn","type":"uint256"}],"name":"swap","outputs":[{"internalType":"uint256","name":"amountOut","type":"uint256"}],"stateMutability":"nonpayable","type":"function"},{"inputs":[],"name":"token0","outputs":[{"internalType":"contract IERC20","name":"","type":"address"}],"stateMutability":"view","type":"function"},{"inputs":[],"name":"token1","outputs":[{"internalType":"contract IERC20","name":"","type":"address"}],"stateMutability":"view","type":"function"},{"inputs":[],"name":"totalSupply","outputs":[{"internalType":"uint256","name":"","type":"uint256"}],"stateMutability":"view","type":"function"}],"evm":{"bytecode":{"linkReferences":{},"object":"60c06040523480156200001157600080fd5b506040516200196138038062001961833981810160405281019062000037919062000111565b8173ffffffffffffffffffffffffffffffffffffffff1660808173ffffffffffffffffffffffffffffffffffffffff16815250508073ffffffffffffffffffffffffffffffffffffffff1660a08173ffffffffffffffffffffffffffffffffffffffff1681525050505062000158565b600080fd5b600073ffffffffffffffffffffffffffffffffffffffff82169050919050565b6000620000d982620000ac565b9050919050565b620000eb81620000cc565b8114620000f757600080fd5b50565b6000815190506200010b81620000e0565b92915050565b600080604083850312156200012b576200012a620000a7565b5b60006200013b85828601620000fa565b92505060206200014e85828601620000fa565b9150509250929050565b60805160a051611796620001cb600039600081816103a8015281816106560152818161075401528181610841015281816108af0152610ac5015260008181610218015281816102ff015281816105bc015281816106ff015281816107e501528181610862015261088e01526117966000f3fe608060405234801561001057600080fd5b506004361061009e5760003560e01c806370a082311161006657806370a08231146101375780639c8f9f23146101675780639cd441da14610198578063d004f0f7146101c8578063d21220a7146101f85761009e565b80630dfe1681146100a357806318160ddd146100c157806343509138146100df578063443cb4bc146100fb5780635a76f25e14610119575b600080fd5b6100ab610216565b6040516100b8919061107f565b60405180910390f35b6100c961023a565b6040516100d691906110b3565b60405180910390f35b6100f960048036038101906100f49190611109565b610240565b005b610103610265565b60405161011091906110b3565b60405180910390f35b61012161026b565b60405161012e91906110b3565b60405180910390f35b610151600480360381019061014c9190611187565b610271565b60405161015e91906110b3565b60405180910390f35b610181600480360381019061017c91906111e0565b610289565b60405161018f92919061120d565b60405180910390f35b6101b260048036038101906101ad9190611236565b61044b565b6040516101bf91906110b3565b60405180910390f35b6101e260048036038101906101dd9190611276565b6106fb565b6040516101ef91906110b3565b60405180910390f35b610200610ac3565b60405161020d919061107f565b60405180910390f35b7f000000000000000000000000000000000000000000000000000000000000000081565b60025481565b60006102558284610ae790919063ffffffff16565b905061026081610c53565b505050565b60005481565b60015481565b60036020528060005260406000206000915090505481565b6000806002548360005461029d91906112e5565b6102a79190611356565b9150600254836001546102ba91906112e5565b6102c49190611356565b90506102d03384610cec565b6102f4826000546102e19190611387565b826001546102ef9190611387565b610d5f565b600082111561039d577f000000000000000000000000000000000000000000000000000000000000000073ffffffffffffffffffffffffffffffffffffffff1663a9059cbb33846040518363ffffffff1660e01b81526004016103589291906113ca565b6020604051808303816000875af1158015610377573d6000803e3d6000fd5b505050506040513d601f19601f8201168201806040525081019061039b919061142b565b505b6000811115610446577f000000000000000000000000000000000000000000000000000000000000000073ffffffffffffffffffffffffffffffffffffffff1663a9059cbb33836040518363ffffffff1660e01b81526004016104019291906113ca565b6020604051808303816000875af1158015610420573d6000803e3d6000fd5b505050506040513d601f19601f82011682018060405250810190610444919061142b565b505b915091565b600080606561045c620186a0610d71565b6104669190611465565b9050600060c7610478620186a0610d71565b6104829190611465565b905061049082600f0b610c53565b6000805411806104a257506000600154115b1561050457846001546104b591906112e5565b846000546104c391906112e5565b14610503576040517f08c379a00000000000000000000000000000000000000000000000000000000081526004016104fa906114ff565b60405180910390fd5b5b60006002540361052957610522848661051d91906112e5565b610d94565b925061056a565b6105676000546002548761053d91906112e5565b6105479190611356565b6001546002548761055891906112e5565b6105629190611356565b610e0e565b92505b600083116105ad576040517f08c379a00000000000000000000000000000000000000000000000000000000081526004016105a49061156b565b60405180910390fd5b6105b73384610e28565b6106f37f000000000000000000000000000000000000000000000000000000000000000073ffffffffffffffffffffffffffffffffffffffff166370a08231306040518263ffffffff1660e01b8152600401610613919061158b565b602060405180830381865afa158015610630573d6000803e3d6000fd5b505050506040513d601f19601f8201168201806040525081019061065491906115bb565b7f000000000000000000000000000000000000000000000000000000000000000073ffffffffffffffffffffffffffffffffffffffff166370a08231306040518263ffffffff1660e01b81526004016106ad919061158b565b602060405180830381865afa1580156106ca573d6000803e3d6000fd5b505050506040513d601f19601f820116820180604052508101906106ee91906115bb565b610d5f565b505092915050565b60007f000000000000000000000000000000000000000000000000000000000000000073ffffffffffffffffffffffffffffffffffffffff168373ffffffffffffffffffffffffffffffffffffffff1614806107a257507f000000000000000000000000000000000000000000000000000000000000000073ffffffffffffffffffffffffffffffffffffffff168373ffffffffffffffffffffffffffffffffffffffff16145b6107e1576040517f08c379a00000000000000000000000000000000000000000000000000000000081526004016107d890611634565b60405180910390fd5b60007f000000000000000000000000000000000000000000000000000000000000000073ffffffffffffffffffffffffffffffffffffffff168473ffffffffffffffffffffffffffffffffffffffff161490506000806000808461088c577f00000000000000000000000000000000000000000000000000000000000000007f00000000000000000000000000000000000000000000000000000000000000006001546000546108d5565b7f00000000000000000000000000000000000000000000000000000000000000007f00000000000000000000000000000000000000000000000000000000000000006000546001545b93509350935093508373ffffffffffffffffffffffffffffffffffffffff166323b872dd33308a6040518463ffffffff1660e01b815260040161091a93929190611654565b6020604051808303816000875af1158015610939573d6000803e3d6000fd5b505050506040513d601f19601f8201168201806040525081019061095d919061142b565b506000828573ffffffffffffffffffffffffffffffffffffffff166370a08231306040518263ffffffff1660e01b815260040161099a919061158b565b602060405180830381865afa1580156109b7573d6000803e3d6000fd5b505050506040513d601f19601f820116820180604052508101906109db91906115bb565b6109e59190611387565b905080965060008087610a0f5788846109fe9190611387565b8386610a0a919061168b565b610a28565b8285610a1b919061168b565b8985610a279190611387565b5b91509150610a368282610d5f565b8573ffffffffffffffffffffffffffffffffffffffff1663a9059cbb338b6040518363ffffffff1660e01b8152600401610a719291906113ca565b6020604051808303816000875af1158015610a90573d6000803e3d6000fd5b505050506040513d601f19601f82011682018060405250810190610ab4919061142b565b50505050505050505092915050565b7f000000000000000000000000000000000000000000000000000000000000000081565b60007f8000000000000000000000000000000000000000000000000000000000000000831480610b3657507f800000000000000000000000000000000000000000000000000000000000000082145b15610b6d576040517fb3c754a300000000000000000000000000000000000000000000000000000000815260040160405180910390fd5b60008060008512610b7e5784610b83565b846000035b915060008412610b935783610b98565b836000035b90506000610baf83670de0b6b3a764000084610e9b565b90507f7fffffffffffffffffffffffffffffffffffffffffffffffffffffffffffffff811115610c1657806040517f7cb4bef5000000000000000000000000000000000000000000000000000000008152600401610c0d91906110b3565b60405180910390fd5b600080600160000388139150600160000387139050600181831814610c3b5782610c46565b82610c45906116bf565b5b9550505050505092915050565b610ce981604051602401610c679190611716565b6040516020818303038152906040527f2d5b6cb9000000000000000000000000000000000000000000000000000000007bffffffffffffffffffffffffffffffffffffffffffffffffffffffff19166020820180517bffffffffffffffffffffffffffffffffffffffffffffffffffffffff8381831617835250505050610fb0565b50565b80600360008473ffffffffffffffffffffffffffffffffffffffff1673ffffffffffffffffffffffffffffffffffffffff1681526020019081526020016000206000828254610d3b9190611387565b925050819055508060026000828254610d549190611387565b925050819055505050565b81600081905550806001819055505050565b6000677fffffffffffffff821115610d8857600080fd5b604082901b9050919050565b60006003821115610dfb5781905060006001600284610db39190611356565b610dbd919061168b565b90505b81811015610df5578091506002818285610dda9190611356565b610de4919061168b565b610dee9190611356565b9050610dc0565b50610e09565b60008214610e0857600190505b5b919050565b600081831115610e1e5781610e20565b825b905092915050565b80600360008473ffffffffffffffffffffffffffffffffffffffff1673ffffffffffffffffffffffffffffffffffffffff1681526020019081526020016000206000828254610e77919061168b565b925050819055508060026000828254610e90919061168b565b925050819055505050565b6000806000801985870985870292508281108382030391505060008103610ed657838281610ecc57610ecb611327565b5b0492505050610fa9565b838110610f1c5780846040517f773cc18c000000000000000000000000000000000000000000000000000000008152600401610f1392919061120d565b60405180910390fd5b60008486880990508281118203915080830392506000600186190186169050808604955080840493506001818260000304019050808302841793506000600287600302189050808702600203810290508087026002038102905080870260020381029050808702600203810290508087026002038102905080870260020381029050808502955050505050505b9392505050565b610fc781610fbf610fca610feb565b63ffffffff16565b50565b60006a636f6e736f6c652e6c6f679050600080835160208501845afa505050565b610ff6819050919050565b610ffe611731565b565b600073ffffffffffffffffffffffffffffffffffffffff82169050919050565b6000819050919050565b600061104561104061103b84611000565b611020565b611000565b9050919050565b60006110578261102a565b9050919050565b60006110698261104c565b9050919050565b6110798161105e565b82525050565b60006020820190506110946000830184611070565b92915050565b6000819050919050565b6110ad8161109a565b82525050565b60006020820190506110c860008301846110a4565b92915050565b600080fd5b6000819050919050565b6110e6816110d3565b81146110f157600080fd5b50565b600081359050611103816110dd565b92915050565b600080604083850312156111205761111f6110ce565b5b600061112e858286016110f4565b925050602061113f858286016110f4565b9150509250929050565b600061115482611000565b9050919050565b61116481611149565b811461116f57600080fd5b50565b6000813590506111818161115b565b92915050565b60006020828403121561119d5761119c6110ce565b5b60006111ab84828501611172565b91505092915050565b6111bd8161109a565b81146111c857600080fd5b50565b6000813590506111da816111b4565b92915050565b6000602082840312156111f6576111f56110ce565b5b6000611204848285016111cb565b91505092915050565b600060408201905061122260008301856110a4565b61122f60208301846110a4565b9392505050565b6000806040838503121561124d5761124c6110ce565b5b600061125b858286016111cb565b925050602061126c858286016111cb565b9150509250929050565b6000806040838503121561128d5761128c6110ce565b5b600061129b85828601611172565b92505060206112ac858286016111cb565b9150509250929050565b7f4e487b7100000000000000000000000000000000000000000000000000000000600052601160045260246000fd5b60006112f08261109a565b91506112fb8361109a565b92508282026113098161109a565b915082820484148315176113205761131f6112b6565b5b5092915050565b7f4e487b7100000000000000000000000000000000000000000000000000000000600052601260045260246000fd5b60006113618261109a565b915061136c8361109a565b92508261137c5761137b611327565b5b828204905092915050565b60006113928261109a565b915061139d8361109a565b92508282039050818111156113b5576113b46112b6565b5b92915050565b6113c481611149565b82525050565b60006040820190506113df60008301856113bb565b6113ec60208301846110a4565b9392505050565b60008115159050919050565b611408816113f3565b811461141357600080fd5b50565b600081519050611425816113ff565b92915050565b600060208284031215611441576114406110ce565b5b600061144f84828501611416565b91505092915050565b600081600f0b9050919050565b600061147082611458565b915061147b83611458565b925082820261148981611458565b915080821461149b5761149a6112b6565b5b5092915050565b600082825260208201905092915050565b7f78202f207920213d206478202f20647900000000000000000000000000000000600082015250565b60006114e96010836114a2565b91506114f4826114b3565b602082019050919050565b60006020820190508181036000830152611518816114dc565b9050919050565b7f736861726573203d203000000000000000000000000000000000000000000000600082015250565b6000611555600a836114a2565b91506115608261151f565b602082019050919050565b6000602082019050818103600083015261158481611548565b9050919050565b60006020820190506115a060008301846113bb565b92915050565b6000815190506115b5816111b4565b92915050565b6000602082840312156115d1576115d06110ce565b5b60006115df848285016115a6565b91505092915050565b7f696e76616c696420746f6b656e00000000000000000000000000000000000000600082015250565b600061161e600d836114a2565b9150611629826115e8565b602082019050919050565b6000602082019050818103600083015261164d81611611565b9050919050565b600060608201905061166960008301866113bb565b61167660208301856113bb565b61168360408301846110a4565b949350505050565b60006116968261109a565b91506116a18361109a565b92508282019050808211156116b9576116b86112b6565b5b92915050565b60006116ca826110d3565b91507f800000000000000000000000000000000000000000000000000000000000000082036116fc576116fb6112b6565b5b816000039050919050565b611710816110d3565b82525050565b600060208201905061172b6000830184611707565b92915050565b7f4e487b7100000000000000000000000000000000000000000000000000000000600052605160045260246000fdfea2646970667358221220b1050c0cb960f87708856f0d082217d93e6976b4a8d1d39e515b10007a301b4364736f6c63430008140033","opcodes":"PUSH1 0xC0 PUSH1 0x40 MSTORE CALLVALUE DUP1 ISZERO PUSH3 0x11 JUMPI PUSH1 0x0 DUP1 REVERT JUMPDEST POP PUSH1 0x40 MLOAD PUSH3 0x1961 CODESIZE SUB DUP1 PUSH3 0x1961 DUP4 CODECOPY DUP2 DUP2 ADD PUSH1 0x40 MSTORE DUP2 ADD SWAP1 PUSH3 0x37 SWAP2 SWAP1 PUSH3 0x111 JUMP JUMPDEST DUP2 PUSH20 0xFFFFFFFFFFFFFFFFFFFFFFFFFFFFFFFFFFFFFFFF AND PUSH1 0x80 DUP2 PUSH20 0xFFFFFFFFFFFFFFFFFFFFFFFFFFFFFFFFFFFFFFFF AND DUP2 MSTORE POP POP DUP1 PUSH20 0xFFFFFFFFFFFFFFFFFFFFFFFFFFFFFFFFFFFFFFFF AND PUSH1 0xA0 DUP2 PUSH20 0xFFFFFFFFFFFFFFFFFFFFFFFFFFFFFFFFFFFFFFFF AND DUP2 MSTORE POP POP POP POP PUSH3 0x158 JUMP JUMPDEST PUSH1 0x0 DUP1 REVERT JUMPDEST PUSH1 0x0 PUSH20 0xFFFFFFFFFFFFFFFFFFFFFFFFFFFFFFFFFFFFFFFF DUP3 AND SWAP1 POP SWAP2 SWAP1 POP JUMP JUMPDEST PUSH1 0x0 PUSH3 0xD9 DUP3 PUSH3 0xAC JUMP JUMPDEST SWAP1 POP SWAP2 SWAP1 POP JUMP JUMPDEST PUSH3 0xEB DUP2 PUSH3 0xCC JUMP JUMPDEST DUP2 EQ PUSH3 0xF7 JUMPI PUSH1 0x0 DUP1 REVERT JUMPDEST POP JUMP JUMPDEST PUSH1 0x0 DUP2 MLOAD SWAP1 POP PUSH3 0x10B DUP2 PUSH3 0xE0 JUMP JUMPDEST SWAP3 SWAP2 POP POP JUMP JUMPDEST PUSH1 0x0 DUP1 PUSH1 0x40 DUP4 DUP6 SUB SLT ISZERO PUSH3 0x12B JUMPI PUSH3 0x12A PUSH3 0xA7 JUMP JUMPDEST JUMPDEST PUSH1 0x0 PUSH3 0x13B DUP6 DUP3 DUP7 ADD PUSH3 0xFA JUMP JUMPDEST SWAP3 POP POP PUSH1 0x20 PUSH3 0x14E DUP6 DUP3 DUP7 ADD PUSH3 0xFA JUMP JUMPDEST SWAP2 POP POP SWAP3 POP SWAP3 SWAP1 POP JUMP JUMPDEST PUSH1 0x80 MLOAD PUSH1 0xA0 MLOAD PUSH2 0x1796 PUSH3 0x1CB PUSH1 0x0 CODECOPY PUSH1 0x0 DUP2 DUP2 PUSH2 0x3A8 ADD MSTORE DUP2 DUP2 PUSH2 0x656 ADD MSTORE DUP2 DUP2 PUSH2 0x754 ADD MSTORE DUP2 DUP2 PUSH2 0x841 ADD MSTORE DUP2 DUP2 PUSH2 0x8AF ADD MSTORE PUSH2 0xAC5 ADD MSTORE PUSH1 0x0 DUP2 DUP2 PUSH2 0x218 ADD MSTORE DUP2 DUP2 PUSH2 0x2FF ADD MSTORE DUP2 DUP2 PUSH2 0x5BC ADD MSTORE DUP2 DUP2 PUSH2 0x6FF ADD MSTORE DUP2 DUP2 PUSH2 0x7E5 ADD MSTORE DUP2 DUP2 PUSH2 0x862 ADD MSTORE PUSH2 0x88E ADD MSTORE PUSH2 0x1796 PUSH1 0x0 RETURN INVALID PUSH1 0x80 PUSH1 0x40 MSTORE CALLVALUE DUP1 ISZERO PUSH2 0x10 JUMPI PUSH1 0x0 DUP1 REVERT JUMPDEST POP PUSH1 0x4 CALLDATASIZE LT PUSH2 0x9E JUMPI PUSH1 0x0 CALLDATALOAD PUSH1 0xE0 SHR DUP1 PUSH4 0x70A08231 GT PUSH2 0x66 JUMPI DUP1 PUSH4 0x70A08231 EQ PUSH2 0x137 JUMPI DUP1 PUSH4 0x9C8F9F23 EQ PUSH2 0x167 JUMPI DUP1 PUSH4 0x9CD441DA EQ PUSH2 0x198 JUMPI DUP1 PUSH4 0xD004F0F7 EQ PUSH2 0x1C8 JUMPI DUP1 PUSH4 0xD21220A7 EQ PUSH2 0x1F8 JUMPI PUSH2 0x9E JUMP JUMPDEST DUP1 PUSH4 0xDFE1681 EQ PUSH2 0xA3 JUMPI DUP1 PUSH4 0x18160DDD EQ PUSH2 0xC1 JUMPI DUP1 PUSH4 0x43509138 EQ PUSH2 0xDF JUMPI DUP1 PUSH4 0x443CB4BC EQ PUSH2 0xFB JUMPI DUP1 PUSH4 0x5A76F25E EQ PUSH2 0x119 JUMPI JUMPDEST PUSH1 0x0 DUP1 REVERT JUMPDEST PUSH2 0xAB PUSH2 0x216 JUMP JUMPDEST PUSH1 0x40 MLOAD PUSH2 0xB8 SWAP2 SWAP1 PUSH2 0x107F JUMP JUMPDEST PUSH1 0x40 MLOAD DUP1 SWAP2 SUB SWAP1 RETURN JUMPDEST PUSH2 0xC9 PUSH2 0x23A JUMP JUMPDEST PUSH1 0x40 MLOAD PUSH2 0xD6 SWAP2 SWAP1 PUSH2 0x10B3 JUMP JUMPDEST PUSH1 0x40 MLOAD DUP1 SWAP2 SUB SWAP1 RETURN JUMPDEST PUSH2 0xF9 PUSH1 0x4 DUP1 CALLDATASIZE SUB DUP2 ADD SWAP1 PUSH2 0xF4 SWAP2 SWAP1 PUSH2 0x1109 JUMP JUMPDEST PUSH2 0x240 JUMP JUMPDEST STOP JUMPDEST PUSH2 0x103 PUSH2 0x265 JUMP JUMPDEST PUSH1 0x40 MLOAD PUSH2 0x110 SWAP2 SWAP1 PUSH2 0x10B3 JUMP JUMPDEST PUSH1 0x40 MLOAD DUP1 SWAP2 SUB SWAP1 RETURN JUMPDEST PUSH2 0x121 PUSH2 0x26B JUMP JUMPDEST PUSH1 0x40 MLOAD PUSH2 0x12E SWAP2 SWAP1 PUSH2 0x10B3 JUMP JUMPDEST PUSH1 0x40 MLOAD DUP1 SWAP2 SUB SWAP1 RETURN JUMPDEST PUSH2 0x151 PUSH1 0x4 DUP1 CALLDATASIZE SUB DUP2 ADD SWAP1 PUSH2 0x14C SWAP2 SWAP1 PUSH2 0x1187 JUMP JUMPDEST PUSH2 0x271 JUMP JUMPDEST PUSH1 0x40 MLOAD PUSH2 0x15E SWAP2 SWAP1 PUSH2 0x10B3 JUMP JUMPDEST PUSH1 0x40 MLOAD DUP1 SWAP2 SUB SWAP1 RETURN JUMPDEST PUSH2 0x181 PUSH1 0x4 DUP1 CALLDATASIZE SUB DUP2 ADD SWAP1 PUSH2 0x17C SWAP2 SWAP1 PUSH2 0x11E0 JUMP JUMPDEST PUSH2 0x289 JUMP JUMPDEST PUSH1 0x40 MLOAD PUSH2 0x18F SWAP3 SWAP2 SWAP1 PUSH2 0x120D JUMP JUMPDEST PUSH1 0x40 MLOAD DUP1 SWAP2 SUB SWAP1 RETURN JUMPDEST PUSH2 0x1B2 PUSH1 0x4 DUP1 CALLDATASIZE SUB DUP2 ADD SWAP1 PUSH2 0x1AD SWAP2 SWAP1 PUSH2 0x1236 JUMP JUMPDEST PUSH2 0x44B JUMP JUMPDEST PUSH1 0x40 MLOAD PUSH2 0x1BF SWAP2 SWAP1 PUSH2 0x10B3 JUMP JUMPDEST PUSH1 0x40 MLOAD DUP1 SWAP2 SUB SWAP1 RETURN JUMPDEST PUSH2 0x1E2 PUSH1 0x4 DUP1 CALLDATASIZE SUB DUP2 ADD SWAP1 PUSH2 0x1DD SWAP2 SWAP1 PUSH2 0x1276 JUMP JUMPDEST PUSH2 0x6FB JUMP JUMPDEST PUSH1 0x40 MLOAD PUSH2 0x1EF SWAP2 SWAP1 PUSH2 0x10B3 JUMP JUMPDEST PUSH1 0x40 MLOAD DUP1 SWAP2 SUB SWAP1 RETURN JUMPDEST PUSH2 0x200 PUSH2 0xAC3 JUMP JUMPDEST PUSH1 0x40 MLOAD PUSH2 0x20D SWAP2 SWAP1 PUSH2 0x107F JUMP JUMPDEST PUSH1 0x40 MLOAD DUP1 SWAP2 SUB SWAP1 RETURN JUMPDEST PUSH32 0x0 DUP2 JUMP JUMPDEST PUSH1 0x2 SLOAD DUP2 JUMP JUMPDEST PUSH1 0x0 PUSH2 0x255 DUP3 DUP5 PUSH2 0xAE7 SWAP1 SWAP2 SWAP1 PUSH4 0xFFFFFFFF AND JUMP JUMPDEST SWAP1 POP PUSH2 0x260 DUP2 PUSH2 0xC53 JUMP JUMPDEST POP POP POP JUMP JUMPDEST PUSH1 0x0 SLOAD DUP2 JUMP JUMPDEST PUSH1 0x1 SLOAD DUP2 JUMP JUMPDEST PUSH1 0x3 PUSH1 0x20 MSTORE DUP1 PUSH1 0x0 MSTORE PUSH1 0x40 PUSH1 0x0 KECCAK256 PUSH1 0x0 SWAP2 POP SWAP1 POP SLOAD DUP2 JUMP JUMPDEST PUSH1 0x0 DUP1 PUSH1 0x2 SLOAD DUP4 PUSH1 0x0 SLOAD PUSH2 0x29D SWAP2 SWAP1 PUSH2 0x12E5 JUMP JUMPDEST PUSH2 0x2A7 SWAP2 SWAP1 PUSH2 0x1356 JUMP JUMPDEST SWAP2 POP PUSH1 0x2 SLOAD DUP4 PUSH1 0x1 SLOAD PUSH2 0x2BA SWAP2 SWAP1 PUSH2 0x12E5 JUMP JUMPDEST PUSH2 0x2C4 SWAP2 SWAP1 PUSH2 0x1356 JUMP JUMPDEST SWAP1 POP PUSH2 0x2D0 CALLER DUP5 PUSH2 0xCEC JUMP JUMPDEST PUSH2 0x2F4 DUP3 PUSH1 0x0 SLOAD PUSH2 0x2E1 SWAP2 SWAP1 PUSH2 0x1387 JUMP JUMPDEST DUP3 PUSH1 0x1 SLOAD PUSH2 0x2EF SWAP2 SWAP1 PUSH2 0x1387 JUMP JUMPDEST PUSH2 0xD5F JUMP JUMPDEST PUSH1 0x0 DUP3 GT ISZERO PUSH2 0x39D JUMPI PUSH32 0x0 PUSH20 0xFFFFFFFFFFFFFFFFFFFFFFFFFFFFFFFFFFFFFFFF AND PUSH4 0xA9059CBB CALLER DUP5 PUSH1 0x40 MLOAD DUP4 PUSH4 0xFFFFFFFF AND PUSH1 0xE0 SHL DUP2 MSTORE PUSH1 0x4 ADD PUSH2 0x358 SWAP3 SWAP2 SWAP1 PUSH2 0x13CA JUMP JUMPDEST PUSH1 0x20 PUSH1 0x40 MLOAD DUP1 DUP4 SUB DUP2 PUSH1 0x0 DUP8 GAS CALL ISZERO DUP1 ISZERO PUSH2 0x377 JUMPI RETURNDATASIZE PUSH1 0x0 DUP1 RETURNDATACOPY RETURNDATASIZE PUSH1 0x0 REVERT JUMPDEST POP POP POP POP PUSH1 0x40 MLOAD RETURNDATASIZE PUSH1 0x1F NOT PUSH1 0x1F DUP3 ADD AND DUP3 ADD DUP1 PUSH1 0x40 MSTORE POP DUP2 ADD SWAP1 PUSH2 0x39B SWAP2 SWAP1 PUSH2 0x142B JUMP JUMPDEST POP JUMPDEST PUSH1 0x0 DUP2 GT ISZERO PUSH2 0x446 JUMPI PUSH32 0x0 PUSH20 0xFFFFFFFFFFFFFFFFFFFFFFFFFFFFFFFFFFFFFFFF AND PUSH4 0xA9059CBB CALLER DUP4 PUSH1 0x40 MLOAD DUP4 PUSH4 0xFFFFFFFF AND PUSH1 0xE0 SHL DUP2 MSTORE PUSH1 0x4 ADD PUSH2 0x401 SWAP3 SWAP2 SWAP1 PUSH2 0x13CA JUMP JUMPDEST PUSH1 0x20 PUSH1 0x40 MLOAD DUP1 DUP4 SUB DUP2 PUSH1 0x0 DUP8 GAS CALL ISZERO DUP1 ISZERO PUSH2 0x420 JUMPI RETURNDATASIZE PUSH1 0x0 DUP1 RETURNDATACOPY RETURNDATASIZE PUSH1 0x0 REVERT JUMPDEST POP POP POP POP PUSH1 0x40 MLOAD RETURNDATASIZE PUSH1 0x1F NOT PUSH1 0x1F DUP3 ADD AND DUP3 ADD DUP1 PUSH1 0x40 MSTORE POP DUP2 ADD SWAP1 PUSH2 0x444 SWAP2 SWAP1 PUSH2 0x142B JUMP JUMPDEST POP JUMPDEST SWAP2 POP SWAP2 JUMP JUMPDEST PUSH1 0x0 DUP1 PUSH1 0x65 PUSH2 0x45C PUSH3 0x186A0 PUSH2 0xD71 JUMP JUMPDEST PUSH2 0x466 SWAP2 SWAP1 PUSH2 0x1465 JUMP JUMPDEST SWAP1 POP PUSH1 0x0 PUSH1 0xC7 PUSH2 0x478 PUSH3 0x186A0 PUSH2 0xD71 JUMP JUMPDEST PUSH2 0x482 SWAP2 SWAP1 PUSH2 0x1465 JUMP JUMPDEST SWAP1 POP PUSH2 0x490 DUP3 PUSH1 0xF SIGNEXTEND PUSH2 0xC53 JUMP JUMPDEST PUSH1 0x0 DUP1 SLOAD GT DUP1 PUSH2 0x4A2 JUMPI POP PUSH1 0x0 PUSH1 0x1 SLOAD GT JUMPDEST ISZERO PUSH2 0x504 JUMPI DUP5 PUSH1 0x1 SLOAD PUSH2 0x4B5 SWAP2 SWAP1 PUSH2 0x12E5 JUMP JUMPDEST DUP5 PUSH1 0x0 SLOAD PUSH2 0x4C3 SWAP2 SWAP1 PUSH2 0x12E5 JUMP JUMPDEST EQ PUSH2 0x503 JUMPI PUSH1 0x40 MLOAD PUSH32 0x8C379A000000000000000000000000000000000000000000000000000000000 DUP2 MSTORE PUSH1 0x4 ADD PUSH2 0x4FA SWAP1 PUSH2 0x14FF JUMP JUMPDEST PUSH1 0x40 MLOAD DUP1 SWAP2 SUB SWAP1 REVERT JUMPDEST JUMPDEST PUSH1 0x0 PUSH1 0x2 SLOAD SUB PUSH2 0x529 JUMPI PUSH2 0x522 DUP5 DUP7 PUSH2 0x51D SWAP2 SWAP1 PUSH2 0x12E5 JUMP JUMPDEST PUSH2 0xD94 JUMP JUMPDEST SWAP3 POP PUSH2 0x56A JUMP JUMPDEST PUSH2 0x567 PUSH1 0x0 SLOAD PUSH1 0x2 SLOAD DUP8 PUSH2 0x53D SWAP2 SWAP1 PUSH2 0x12E5 JUMP JUMPDEST PUSH2 0x547 SWAP2 SWAP1 PUSH2 0x1356 JUMP JUMPDEST PUSH1 0x1 SLOAD PUSH1 0x2 SLOAD DUP8 PUSH2 0x558 SWAP2 SWAP1 PUSH2 0x12E5 JUMP JUMPDEST PUSH2 0x562 SWAP2 SWAP1 PUSH2 0x1356 JUMP JUMPDEST PUSH2 0xE0E JUMP JUMPDEST SWAP3 POP JUMPDEST PUSH1 0x0 DUP4 GT PUSH2 0x5AD JUMPI PUSH1 0x40 MLOAD PUSH32 0x8C379A000000000000000000000000000000000000000000000000000000000 DUP2 MSTORE PUSH1 0x4 ADD PUSH2 0x5A4 SWAP1 PUSH2 0x156B JUMP JUMPDEST PUSH1 0x40 MLOAD DUP1 SWAP2 SUB SWAP1 REVERT JUMPDEST PUSH2 0x5B7 CALLER DUP5 PUSH2 0xE28 JUMP JUMPDEST PUSH2 0x6F3 PUSH32 0x0 PUSH20 0xFFFFFFFFFFFFFFFFFFFFFFFFFFFFFFFFFFFFFFFF AND PUSH4 0x70A08231 ADDRESS PUSH1 0x40 MLOAD DUP3 PUSH4 0xFFFFFFFF AND PUSH1 0xE0 SHL DUP2 MSTORE PUSH1 0x4 ADD PUSH2 0x613 SWAP2 SWAP1 PUSH2 0x158B JUMP JUMPDEST PUSH1 0x20 PUSH1 0x40 MLOAD DUP1 DUP4 SUB DUP2 DUP7 GAS STATICCALL ISZERO DUP1 ISZERO PUSH2 0x630 JUMPI RETURNDATASIZE PUSH1 0x0 DUP1 RETURNDATACOPY RETURNDATASIZE PUSH1 0x0 REVERT JUMPDEST POP POP POP POP PUSH1 0x40 MLOAD RETURNDATASIZE PUSH1 0x1F NOT PUSH1 0x1F DUP3 ADD AND DUP3 ADD DUP1 PUSH1 0x40 MSTORE POP DUP2 ADD SWAP1 PUSH2 0x654 SWAP2 SWAP1 PUSH2 0x15BB JUMP JUMPDEST PUSH32 0x0 PUSH20 0xFFFFFFFFFFFFFFFFFFFFFFFFFFFFFFFFFFFFFFFF AND PUSH4 0x70A08231 ADDRESS PUSH1 0x40 MLOAD DUP3 PUSH4 0xFFFFFFFF AND PUSH1 0xE0 SHL DUP2 MSTORE PUSH1 0x4 ADD PUSH2 0x6AD SWAP2 SWAP1 PUSH2 0x158B JUMP JUMPDEST PUSH1 0x20 PUSH1 0x40 MLOAD DUP1 DUP4 SUB DUP2 DUP7 GAS STATICCALL ISZERO DUP1 ISZERO PUSH2 0x6CA JUMPI RETURNDATASIZE PUSH1 0x0 DUP1 RETURNDATACOPY RETURNDATASIZE PUSH1 0x0 REVERT JUMPDEST POP POP POP POP PUSH1 0x40 MLOAD RETURNDATASIZE PUSH1 0x1F NOT PUSH1 0x1F DUP3 ADD AND DUP3 ADD DUP1 PUSH1 0x40 MSTORE POP DUP2 ADD SWAP1 PUSH2 0x6EE SWAP2 SWAP1 PUSH2 0x15BB JUMP JUMPDEST PUSH2 0xD5F JUMP JUMPDEST POP POP SWAP3 SWAP2 POP POP JUMP JUMPDEST PUSH1 0x0 PUSH32 0x0 PUSH20 0xFFFFFFFFFFFFFFFFFFFFFFFFFFFFFFFFFFFFFFFF AND DUP4 PUSH20 0xFFFFFFFFFFFFFFFFFFFFFFFFFFFFFFFFFFFFFFFF AND EQ DUP1 PUSH2 0x7A2 JUMPI POP PUSH32 0x0 PUSH20 0xFFFFFFFFFFFFFFFFFFFFFFFFFFFFFFFFFFFFFFFF AND DUP4 PUSH20 0xFFFFFFFFFFFFFFFFFFFFFFFFFFFFFFFFFFFFFFFF AND EQ JUMPDEST PUSH2 0x7E1 JUMPI PUSH1 0x40 MLOAD PUSH32 0x8C379A000000000000000000000000000000000000000000000000000000000 DUP2 MSTORE PUSH1 0x4 ADD PUSH2 0x7D8 SWAP1 PUSH2 0x1634 JUMP JUMPDEST PUSH1 0x40 MLOAD DUP1 SWAP2 SUB SWAP1 REVERT JUMPDEST PUSH1 0x0 PUSH32 0x0 PUSH20 0xFFFFFFFFFFFFFFFFFFFFFFFFFFFFFFFFFFFFFFFF AND DUP5 PUSH20 0xFFFFFFFFFFFFFFFFFFFFFFFFFFFFFFFFFFFFFFFF AND EQ SWAP1 POP PUSH1 0x0 DUP1 PUSH1 0x0 DUP1 DUP5 PUSH2 0x88C JUMPI PUSH32 0x0 PUSH32 0x0 PUSH1 0x1 SLOAD PUSH1 0x0 SLOAD PUSH2 0x8D5 JUMP JUMPDEST PUSH32 0x0 PUSH32 0x0 PUSH1 0x0 SLOAD PUSH1 0x1 SLOAD JUMPDEST SWAP4 POP SWAP4 POP SWAP4 POP SWAP4 POP DUP4 PUSH20 0xFFFFFFFFFFFFFFFFFFFFFFFFFFFFFFFFFFFFFFFF AND PUSH4 0x23B872DD CALLER ADDRESS DUP11 PUSH1 0x40 MLOAD DUP5 PUSH4 0xFFFFFFFF AND PUSH1 0xE0 SHL DUP2 MSTORE PUSH1 0x4 ADD PUSH2 0x91A SWAP4 SWAP3 SWAP2 SWAP1 PUSH2 0x1654 JUMP JUMPDEST PUSH1 0x20 PUSH1 0x40 MLOAD DUP1 DUP4 SUB DUP2 PUSH1 0x0 DUP8 GAS CALL ISZERO DUP1 ISZERO PUSH2 0x939 JUMPI RETURNDATASIZE PUSH1 0x0 DUP1 RETURNDATACOPY RETURNDATASIZE PUSH1 0x0 REVERT JUMPDEST POP POP POP POP PUSH1 0x40 MLOAD RETURNDATASIZE PUSH1 0x1F NOT PUSH1 0x1F DUP3 ADD AND DUP3 ADD DUP1 PUSH1 0x40 MSTORE POP DUP2 ADD SWAP1 PUSH2 0x95D SWAP2 SWAP1 PUSH2 0x142B JUMP JUMPDEST POP PUSH1 0x0 DUP3 DUP6 PUSH20 0xFFFFFFFFFFFFFFFFFFFFFFFFFFFFFFFFFFFFFFFF AND PUSH4 0x70A08231 ADDRESS PUSH1 0x40 MLOAD DUP3 PUSH4 0xFFFFFFFF AND PUSH1 0xE0 SHL DUP2 MSTORE PUSH1 0x4 ADD PUSH2 0x99A SWAP2 SWAP1 PUSH2 0x158B JUMP JUMPDEST PUSH1 0x20 PUSH1 0x40 MLOAD DUP1 DUP4 SUB DUP2 DUP7 GAS STATICCALL ISZERO DUP1 ISZERO PUSH2 0x9B7 JUMPI RETURNDATASIZE PUSH1 0x0 DUP1 RETURNDATACOPY RETURNDATASIZE PUSH1 0x0 REVERT JUMPDEST POP POP POP POP PUSH1 0x40 MLOAD RETURNDATASIZE PUSH1 0x1F NOT PUSH1 0x1F DUP3 ADD AND DUP3 ADD DUP1 PUSH1 0x40 MSTORE POP DUP2 ADD SWAP1 PUSH2 0x9DB SWAP2 SWAP1 PUSH2 0x15BB JUMP JUMPDEST PUSH2 0x9E5 SWAP2 SWAP1 PUSH2 0x1387 JUMP JUMPDEST SWAP1 POP DUP1 SWAP7 POP PUSH1 0x0 DUP1 DUP8 PUSH2 0xA0F JUMPI DUP9 DUP5 PUSH2 0x9FE SWAP2 SWAP1 PUSH2 0x1387 JUMP JUMPDEST DUP4 DUP7 PUSH2 0xA0A SWAP2 SWAP1 PUSH2 0x168B JUMP JUMPDEST PUSH2 0xA28 JUMP JUMPDEST DUP3 DUP6 PUSH2 0xA1B SWAP2 SWAP1 PUSH2 0x168B JUMP JUMPDEST DUP10 DUP6 PUSH2 0xA27 SWAP2 SWAP1 PUSH2 0x1387 JUMP JUMPDEST JUMPDEST SWAP2 POP SWAP2 POP PUSH2 0xA36 DUP3 DUP3 PUSH2 0xD5F JUMP JUMPDEST DUP6 PUSH20 0xFFFFFFFFFFFFFFFFFFFFFFFFFFFFFFFFFFFFFFFF AND PUSH4 0xA9059CBB CALLER DUP12 PUSH1 0x40 MLOAD DUP4 PUSH4 0xFFFFFFFF AND PUSH1 0xE0 SHL DUP2 MSTORE PUSH1 0x4 ADD PUSH2 0xA71 SWAP3 SWAP2 SWAP1 PUSH2 0x13CA JUMP JUMPDEST PUSH1 0x20 PUSH1 0x40 MLOAD DUP1 DUP4 SUB DUP2 PUSH1 0x0 DUP8 GAS CALL ISZERO DUP1 ISZERO PUSH2 0xA90 JUMPI RETURNDATASIZE PUSH1 0x0 DUP1 RETURNDATACOPY RETURNDATASIZE PUSH1 0x0 REVERT JUMPDEST POP POP POP POP PUSH1 0x40 MLOAD RETURNDATASIZE PUSH1 0x1F NOT PUSH1 0x1F DUP3 ADD AND DUP3 ADD DUP1 PUSH1 0x40 MSTORE POP DUP2 ADD SWAP1 PUSH2 0xAB4 SWAP2 SWAP1 PUSH2 0x142B JUMP JUMPDEST POP POP POP POP POP POP POP POP POP SWAP3 SWAP2 POP POP JUMP JUMPDEST PUSH32 0x0 DUP2 JUMP JUMPDEST PUSH1 0x0 PUSH32 0x8000000000000000000000000000000000000000000000000000000000000000 DUP4 EQ DUP1 PUSH2 0xB36 JUMPI POP PUSH32 0x8000000000000000000000000000000000000000000000000000000000000000 DUP3 EQ JUMPDEST ISZERO PUSH2 0xB6D JUMPI PUSH1 0x40 MLOAD PUSH32 0xB3C754A300000000000000000000000000000000000000000000000000000000 DUP2 MSTORE PUSH1 0x4 ADD PUSH1 0x40 MLOAD DUP1 SWAP2 SUB SWAP1 REVERT JUMPDEST PUSH1 0x0 DUP1 PUSH1 0x0 DUP6 SLT PUSH2 0xB7E JUMPI DUP5 PUSH2 0xB83 JUMP JUMPDEST DUP5 PUSH1 0x0 SUB JUMPDEST SWAP2 POP PUSH1 0x0 DUP5 SLT PUSH2 0xB93 JUMPI DUP4 PUSH2 0xB98 JUMP JUMPDEST DUP4 PUSH1 0x0 SUB JUMPDEST SWAP1 POP PUSH1 0x0 PUSH2 0xBAF DUP4 PUSH8 0xDE0B6B3A7640000 DUP5 PUSH2 0xE9B JUMP JUMPDEST SWAP1 POP PUSH32 0x7FFFFFFFFFFFFFFFFFFFFFFFFFFFFFFFFFFFFFFFFFFFFFFFFFFFFFFFFFFFFFFF DUP2 GT ISZERO PUSH2 0xC16 JUMPI DUP1 PUSH1 0x40 MLOAD PUSH32 0x7CB4BEF500000000000000000000000000000000000000000000000000000000 DUP2 MSTORE PUSH1 0x4 ADD PUSH2 0xC0D SWAP2 SWAP1 PUSH2 0x10B3 JUMP JUMPDEST PUSH1 0x40 MLOAD DUP1 SWAP2 SUB SWAP1 REVERT JUMPDEST PUSH1 0x0 DUP1 PUSH1 0x1 PUSH1 0x0 SUB DUP9 SGT SWAP2 POP PUSH1 0x1 PUSH1 0x0 SUB DUP8 SGT SWAP1 POP PUSH1 0x1 DUP2 DUP4 XOR EQ PUSH2 0xC3B JUMPI DUP3 PUSH2 0xC46 JUMP JUMPDEST DUP3 PUSH2 0xC45 SWAP1 PUSH2 0x16BF JUMP JUMPDEST JUMPDEST SWAP6 POP POP POP POP POP POP SWAP3 SWAP2 POP POP JUMP JUMPDEST PUSH2 0xCE9 DUP2 PUSH1 0x40 MLOAD PUSH1 0x24 ADD PUSH2 0xC67 SWAP2 SWAP1 PUSH2 0x1716 JUMP JUMPDEST PUSH1 0x40 MLOAD PUSH1 0x20 DUP2 DUP4 SUB SUB DUP2 MSTORE SWAP1 PUSH1 0x40 MSTORE PUSH32 0x2D5B6CB900000000000000000000000000000000000000000000000000000000 PUSH28 0xFFFFFFFFFFFFFFFFFFFFFFFFFFFFFFFFFFFFFFFFFFFFFFFFFFFFFFFF NOT AND PUSH1 0x20 DUP3 ADD DUP1 MLOAD PUSH28 0xFFFFFFFFFFFFFFFFFFFFFFFFFFFFFFFFFFFFFFFFFFFFFFFFFFFFFFFF DUP4 DUP2 DUP4 AND OR DUP4 MSTORE POP POP POP POP PUSH2 0xFB0 JUMP JUMPDEST POP JUMP JUMPDEST DUP1 PUSH1 0x3 PUSH1 0x0 DUP5 PUSH20 0xFFFFFFFFFFFFFFFFFFFFFFFFFFFFFFFFFFFFFFFF AND PUSH20 0xFFFFFFFFFFFFFFFFFFFFFFFFFFFFFFFFFFFFFFFF AND DUP2 MSTORE PUSH1 0x20 ADD SWAP1 DUP2 MSTORE PUSH1 0x20 ADD PUSH1 0x0 KECCAK256 PUSH1 0x0 DUP3 DUP3 SLOAD PUSH2 0xD3B SWAP2 SWAP1 PUSH2 0x1387 JUMP JUMPDEST SWAP3 POP POP DUP2 SWAP1 SSTORE POP DUP1 PUSH1 0x2 PUSH1 0x0 DUP3 DUP3 SLOAD PUSH2 0xD54 SWAP2 SWAP1 PUSH2 0x1387 JUMP JUMPDEST SWAP3 POP POP DUP2 SWAP1 SSTORE POP POP POP JUMP JUMPDEST DUP2 PUSH1 0x0 DUP2 SWAP1 SSTORE POP DUP1 PUSH1 0x1 DUP2 SWAP1 SSTORE POP POP POP JUMP JUMPDEST PUSH1 0x0 PUSH8 0x7FFFFFFFFFFFFFFF DUP3 GT ISZERO PUSH2 0xD88 JUMPI PUSH1 0x0 DUP1 REVERT JUMPDEST PUSH1 0x40 DUP3 SWAP1 SHL SWAP1 POP SWAP2 SWAP1 POP JUMP JUMPDEST PUSH1 0x0 PUSH1 0x3 DUP3 GT ISZERO PUSH2 0xDFB JUMPI DUP2 SWAP1 POP PUSH1 0x0 PUSH1 0x1 PUSH1 0x2 DUP5 PUSH2 0xDB3 SWAP2 SWAP1 PUSH2 0x1356 JUMP JUMPDEST PUSH2 0xDBD SWAP2 SWAP1 PUSH2 0x168B JUMP JUMPDEST SWAP1 POP JUMPDEST DUP2 DUP2 LT ISZERO PUSH2 0xDF5 JUMPI DUP1 SWAP2 POP PUSH1 0x2 DUP2 DUP3 DUP6 PUSH2 0xDDA SWAP2 SWAP1 PUSH2 0x1356 JUMP JUMPDEST PUSH2 0xDE4 SWAP2 SWAP1 PUSH2 0x168B JUMP JUMPDEST PUSH2 0xDEE SWAP2 SWAP1 PUSH2 0x1356 JUMP JUMPDEST SWAP1 POP PUSH2 0xDC0 JUMP JUMPDEST POP PUSH2 0xE09 JUMP JUMPDEST PUSH1 0x0 DUP3 EQ PUSH2 0xE08 JUMPI PUSH1 0x1 SWAP1 POP JUMPDEST JUMPDEST SWAP2 SWAP1 POP JUMP JUMPDEST PUSH1 0x0 DUP2 DUP4 GT ISZERO PUSH2 0xE1E JUMPI DUP2 PUSH2 0xE20 JUMP JUMPDEST DUP3 JUMPDEST SWAP1 POP SWAP3 SWAP2 POP POP JUMP JUMPDEST DUP1 PUSH1 0x3 PUSH1 0x0 DUP5 PUSH20 0xFFFFFFFFFFFFFFFFFFFFFFFFFFFFFFFFFFFFFFFF AND PUSH20 0xFFFFFFFFFFFFFFFFFFFFFFFFFFFFFFFFFFFFFFFF AND DUP2 MSTORE PUSH1 0x20 ADD SWAP1 DUP2 MSTORE PUSH1 0x20 ADD PUSH1 0x0 KECCAK256 PUSH1 0x0 DUP3 DUP3 SLOAD PUSH2 0xE77 SWAP2 SWAP1 PUSH2 0x168B JUMP JUMPDEST SWAP3 POP POP DUP2 SWAP1 SSTORE POP DUP1 PUSH1 0x2 PUSH1 0x0 DUP3 DUP3 SLOAD PUSH2 0xE90 SWAP2 SWAP1 PUSH2 0x168B JUMP JUMPDEST SWAP3 POP POP DUP2 SWAP1 SSTORE POP POP POP JUMP JUMPDEST PUSH1 0x0 DUP1 PUSH1 0x0 DUP1 NOT DUP6 DUP8 MULMOD DUP6 DUP8 MUL SWAP3 POP DUP3 DUP2 LT DUP4 DUP3 SUB SUB SWAP2 POP POP PUSH1 0x0 DUP2 SUB PUSH2 0xED6 JUMPI DUP4 DUP3 DUP2 PUSH2 0xECC JUMPI PUSH2 0xECB PUSH2 0x1327 JUMP JUMPDEST JUMPDEST DIV SWAP3 POP POP POP PUSH2 0xFA9 JUMP JUMPDEST DUP4 DUP2 LT PUSH2 0xF1C JUMPI DUP1 DUP5 PUSH1 0x40 MLOAD PUSH32 0x773CC18C00000000000000000000000000000000000000000000000000000000 DUP2 MSTORE PUSH1 0x4 ADD PUSH2 0xF13 SWAP3 SWAP2 SWAP1 PUSH2 0x120D JUMP JUMPDEST PUSH1 0x40 MLOAD DUP1 SWAP2 SUB SWAP1 REVERT JUMPDEST PUSH1 0x0 DUP5 DUP7 DUP9 MULMOD SWAP1 POP DUP3 DUP2 GT DUP3 SUB SWAP2 POP DUP1 DUP4 SUB SWAP3 POP PUSH1 0x0 PUSH1 0x1 DUP7 NOT ADD DUP7 AND SWAP1 POP DUP1 DUP7 DIV SWAP6 POP DUP1 DUP5 DIV SWAP4 POP PUSH1 0x1 DUP2 DUP3 PUSH1 0x0 SUB DIV ADD SWAP1 POP DUP1 DUP4 MUL DUP5 OR SWAP4 POP PUSH1 0x0 PUSH1 0x2 DUP8 PUSH1 0x3 MUL XOR SWAP1 POP DUP1 DUP8 MUL PUSH1 0x2 SUB DUP2 MUL SWAP1 POP DUP1 DUP8 MUL PUSH1 0x2 SUB DUP2 MUL SWAP1 POP DUP1 DUP8 MUL PUSH1 0x2 SUB DUP2 MUL SWAP1 POP DUP1 DUP8 MUL PUSH1 0x2 SUB DUP2 MUL SWAP1 POP DUP1 DUP8 MUL PUSH1 0x2 SUB DUP2 MUL SWAP1 POP DUP1 DUP8 MUL PUSH1 0x2 SUB DUP2 MUL SWAP1 POP DUP1 DUP6 MUL SWAP6 POP POP POP POP POP POP JUMPDEST SWAP4 SWAP3 POP POP POP JUMP JUMPDEST PUSH2 0xFC7 DUP2 PUSH2 0xFBF PUSH2 0xFCA PUSH2 0xFEB JUMP JUMPDEST PUSH4 0xFFFFFFFF AND JUMP JUMPDEST POP JUMP JUMPDEST PUSH1 0x0 PUSH11 0x636F6E736F6C652E6C6F67 SWAP1 POP PUSH1 0x0 DUP1 DUP4 MLOAD PUSH1 0x20 DUP6 ADD DUP5 GAS STATICCALL POP POP POP JUMP JUMPDEST PUSH2 0xFF6 DUP2 SWAP1 POP SWAP2 SWAP1 POP JUMP JUMPDEST PUSH2 0xFFE PUSH2 0x1731 JUMP JUMPDEST JUMP JUMPDEST PUSH1 0x0 PUSH20 0xFFFFFFFFFFFFFFFFFFFFFFFFFFFFFFFFFFFFFFFF DUP3 AND SWAP1 POP SWAP2 SWAP1 POP JUMP JUMPDEST PUSH1 0x0 DUP2 SWAP1 POP SWAP2 SWAP1 POP JUMP JUMPDEST PUSH1 0x0 PUSH2 0x1045 PUSH2 0x1040 PUSH2 0x103B DUP5 PUSH2 0x1000 JUMP JUMPDEST PUSH2 0x1020 JUMP JUMPDEST PUSH2 0x1000 JUMP JUMPDEST SWAP1 POP SWAP2 SWAP1 POP JUMP JUMPDEST PUSH1 0x0 PUSH2 0x1057 DUP3 PUSH2 0x102A JUMP JUMPDEST SWAP1 POP SWAP2 SWAP1 POP JUMP JUMPDEST PUSH1 0x0 PUSH2 0x1069 DUP3 PUSH2 0x104C JUMP JUMPDEST SWAP1 POP SWAP2 SWAP1 POP JUMP JUMPDEST PUSH2 0x1079 DUP2 PUSH2 0x105E JUMP JUMPDEST DUP3 MSTORE POP POP JUMP JUMPDEST PUSH1 0x0 PUSH1 0x20 DUP3 ADD SWAP1 POP PUSH2 0x1094 PUSH1 0x0 DUP4 ADD DUP5 PUSH2 0x1070 JUMP JUMPDEST SWAP3 SWAP2 POP POP JUMP JUMPDEST PUSH1 0x0 DUP2 SWAP1 POP SWAP2 SWAP1 POP JUMP JUMPDEST PUSH2 0x10AD DUP2 PUSH2 0x109A JUMP JUMPDEST DUP3 MSTORE POP POP JUMP JUMPDEST PUSH1 0x0 PUSH1 0x20 DUP3 ADD SWAP1 POP PUSH2 0x10C8 PUSH1 0x0 DUP4 ADD DUP5 PUSH2 0x10A4 JUMP JUMPDEST SWAP3 SWAP2 POP POP JUMP JUMPDEST PUSH1 0x0 DUP1 REVERT JUMPDEST PUSH1 0x0 DUP2 SWAP1 POP SWAP2 SWAP1 POP JUMP JUMPDEST PUSH2 0x10E6 DUP2 PUSH2 0x10D3 JUMP JUMPDEST DUP2 EQ PUSH2 0x10F1 JUMPI PUSH1 0x0 DUP1 REVERT JUMPDEST POP JUMP JUMPDEST PUSH1 0x0 DUP2 CALLDATALOAD SWAP1 POP PUSH2 0x1103 DUP2 PUSH2 0x10DD JUMP JUMPDEST SWAP3 SWAP2 POP POP JUMP JUMPDEST PUSH1 0x0 DUP1 PUSH1 0x40 DUP4 DUP6 SUB SLT ISZERO PUSH2 0x1120 JUMPI PUSH2 0x111F PUSH2 0x10CE JUMP JUMPDEST JUMPDEST PUSH1 0x0 PUSH2 0x112E DUP6 DUP3 DUP7 ADD PUSH2 0x10F4 JUMP JUMPDEST SWAP3 POP POP PUSH1 0x20 PUSH2 0x113F DUP6 DUP3 DUP7 ADD PUSH2 0x10F4 JUMP JUMPDEST SWAP2 POP POP SWAP3 POP SWAP3 SWAP1 POP JUMP JUMPDEST PUSH1 0x0 PUSH2 0x1154 DUP3 PUSH2 0x1000 JUMP JUMPDEST SWAP1 POP SWAP2 SWAP1 POP JUMP JUMPDEST PUSH2 0x1164 DUP2 PUSH2 0x1149 JUMP JUMPDEST DUP2 EQ PUSH2 0x116F JUMPI PUSH1 0x0 DUP1 REVERT JUMPDEST POP JUMP JUMPDEST PUSH1 0x0 DUP2 CALLDATALOAD SWAP1 POP PUSH2 0x1181 DUP2 PUSH2 0x115B JUMP JUMPDEST SWAP3 SWAP2 POP POP JUMP JUMPDEST PUSH1 0x0 PUSH1 0x20 DUP3 DUP5 SUB SLT ISZERO PUSH2 0x119D JUMPI PUSH2 0x119C PUSH2 0x10CE JUMP JUMPDEST JUMPDEST PUSH1 0x0 PUSH2 0x11AB DUP5 DUP3 DUP6 ADD PUSH2 0x1172 JUMP JUMPDEST SWAP2 POP POP SWAP3 SWAP2 POP POP JUMP JUMPDEST PUSH2 0x11BD DUP2 PUSH2 0x109A JUMP JUMPDEST DUP2 EQ PUSH2 0x11C8 JUMPI PUSH1 0x0 DUP1 REVERT JUMPDEST POP JUMP JUMPDEST PUSH1 0x0 DUP2 CALLDATALOAD SWAP1 POP PUSH2 0x11DA DUP2 PUSH2 0x11B4 JUMP JUMPDEST SWAP3 SWAP2 POP POP JUMP JUMPDEST PUSH1 0x0 PUSH1 0x20 DUP3 DUP5 SUB SLT ISZERO PUSH2 0x11F6 JUMPI PUSH2 0x11F5 PUSH2 0x10CE JUMP JUMPDEST JUMPDEST PUSH1 0x0 PUSH2 0x1204 DUP5 DUP3 DUP6 ADD PUSH2 0x11CB JUMP JUMPDEST SWAP2 POP POP SWAP3 SWAP2 POP POP JUMP JUMPDEST PUSH1 0x0 PUSH1 0x40 DUP3 ADD SWAP1 POP PUSH2 0x1222 PUSH1 0x0 DUP4 ADD DUP6 PUSH2 0x10A4 JUMP JUMPDEST PUSH2 0x122F PUSH1 0x20 DUP4 ADD DUP5 PUSH2 0x10A4 JUMP JUMPDEST SWAP4 SWAP3 POP POP POP JUMP JUMPDEST PUSH1 0x0 DUP1 PUSH1 0x40 DUP4 DUP6 SUB SLT ISZERO PUSH2 0x124D JUMPI PUSH2 0x124C PUSH2 0x10CE JUMP JUMPDEST JUMPDEST PUSH1 0x0 PUSH2 0x125B DUP6 DUP3 DUP7 ADD PUSH2 0x11CB JUMP JUMPDEST SWAP3 POP POP PUSH1 0x20 PUSH2 0x126C DUP6 DUP3 DUP7 ADD PUSH2 0x11CB JUMP JUMPDEST SWAP2 POP POP SWAP3 POP SWAP3 SWAP1 POP JUMP JUMPDEST PUSH1 0x0 DUP1 PUSH1 0x40 DUP4 DUP6 SUB SLT ISZERO PUSH2 0x128D JUMPI PUSH2 0x128C PUSH2 0x10CE JUMP JUMPDEST JUMPDEST PUSH1 0x0 PUSH2 0x129B DUP6 DUP3 DUP7 ADD PUSH2 0x1172 JUMP JUMPDEST SWAP3 POP POP PUSH1 0x20 PUSH2 0x12AC DUP6 DUP3 DUP7 ADD PUSH2 0x11CB JUMP JUMPDEST SWAP2 POP POP SWAP3 POP SWAP3 SWAP1 POP JUMP JUMPDEST PUSH32 0x4E487B7100000000000000000000000000000000000000000000000000000000 PUSH1 0x0 MSTORE PUSH1 0x11 PUSH1 0x4 MSTORE PUSH1 0x24 PUSH1 0x0 REVERT JUMPDEST PUSH1 0x0 PUSH2 0x12F0 DUP3 PUSH2 0x109A JUMP JUMPDEST SWAP2 POP PUSH2 0x12FB DUP4 PUSH2 0x109A JUMP JUMPDEST SWAP3 POP DUP3 DUP3 MUL PUSH2 0x1309 DUP2 PUSH2 0x109A JUMP JUMPDEST SWAP2 POP DUP3 DUP3 DIV DUP5 EQ DUP4 ISZERO OR PUSH2 0x1320 JUMPI PUSH2 0x131F PUSH2 0x12B6 JUMP JUMPDEST JUMPDEST POP SWAP3 SWAP2 POP POP JUMP JUMPDEST PUSH32 0x4E487B7100000000000000000000000000000000000000000000000000000000 PUSH1 0x0 MSTORE PUSH1 0x12 PUSH1 0x4 MSTORE PUSH1 0x24 PUSH1 0x0 REVERT JUMPDEST PUSH1 0x0 PUSH2 0x1361 DUP3 PUSH2 0x109A JUMP JUMPDEST SWAP2 POP PUSH2 0x136C DUP4 PUSH2 0x109A JUMP JUMPDEST SWAP3 POP DUP3 PUSH2 0x137C JUMPI PUSH2 0x137B PUSH2 0x1327 JUMP JUMPDEST JUMPDEST DUP3 DUP3 DIV SWAP1 POP SWAP3 SWAP2 POP POP JUMP JUMPDEST PUSH1 0x0 PUSH2 0x1392 DUP3 PUSH2 0x109A JUMP JUMPDEST SWAP2 POP PUSH2 0x139D DUP4 PUSH2 0x109A JUMP JUMPDEST SWAP3 POP DUP3 DUP3 SUB SWAP1 POP DUP2 DUP2 GT ISZERO PUSH2 0x13B5 JUMPI PUSH2 0x13B4 PUSH2 0x12B6 JUMP JUMPDEST JUMPDEST SWAP3 SWAP2 POP POP JUMP JUMPDEST PUSH2 0x13C4 DUP2 PUSH2 0x1149 JUMP JUMPDEST DUP3 MSTORE POP POP JUMP JUMPDEST PUSH1 0x0 PUSH1 0x40 DUP3 ADD SWAP1 POP PUSH2 0x13DF PUSH1 0x0 DUP4 ADD DUP6 PUSH2 0x13BB JUMP JUMPDEST PUSH2 0x13EC PUSH1 0x20 DUP4 ADD DUP5 PUSH2 0x10A4 JUMP JUMPDEST SWAP4 SWAP3 POP POP POP JUMP JUMPDEST PUSH1 0x0 DUP2 ISZERO ISZERO SWAP1 POP SWAP2 SWAP1 POP JUMP JUMPDEST PUSH2 0x1408 DUP2 PUSH2 0x13F3 JUMP JUMPDEST DUP2 EQ PUSH2 0x1413 JUMPI PUSH1 0x0 DUP1 REVERT JUMPDEST POP JUMP JUMPDEST PUSH1 0x0 DUP2 MLOAD SWAP1 POP PUSH2 0x1425 DUP2 PUSH2 0x13FF JUMP JUMPDEST SWAP3 SWAP2 POP POP JUMP JUMPDEST PUSH1 0x0 PUSH1 0x20 DUP3 DUP5 SUB SLT ISZERO PUSH2 0x1441 JUMPI PUSH2 0x1440 PUSH2 0x10CE JUMP JUMPDEST JUMPDEST PUSH1 0x0 PUSH2 0x144F DUP5 DUP3 DUP6 ADD PUSH2 0x1416 JUMP JUMPDEST SWAP2 POP POP SWAP3 SWAP2 POP POP JUMP JUMPDEST PUSH1 0x0 DUP2 PUSH1 0xF SIGNEXTEND SWAP1 POP SWAP2 SWAP1 POP JUMP JUMPDEST PUSH1 0x0 PUSH2 0x1470 DUP3 PUSH2 0x1458 JUMP JUMPDEST SWAP2 POP PUSH2 0x147B DUP4 PUSH2 0x1458 JUMP JUMPDEST SWAP3 POP DUP3 DUP3 MUL PUSH2 0x1489 DUP2 PUSH2 0x1458 JUMP JUMPDEST SWAP2 POP DUP1 DUP3 EQ PUSH2 0x149B JUMPI PUSH2 0x149A PUSH2 0x12B6 JUMP JUMPDEST JUMPDEST POP SWAP3 SWAP2 POP POP JUMP JUMPDEST PUSH1 0x0 DUP3 DUP3 MSTORE PUSH1 0x20 DUP3 ADD SWAP1 POP SWAP3 SWAP2 POP POP JUMP JUMPDEST PUSH32 0x78202F207920213D206478202F20647900000000000000000000000000000000 PUSH1 0x0 DUP3 ADD MSTORE POP JUMP JUMPDEST PUSH1 0x0 PUSH2 0x14E9 PUSH1 0x10 DUP4 PUSH2 0x14A2 JUMP JUMPDEST SWAP2 POP PUSH2 0x14F4 DUP3 PUSH2 0x14B3 JUMP JUMPDEST PUSH1 0x20 DUP3 ADD SWAP1 POP SWAP2 SWAP1 POP JUMP JUMPDEST PUSH1 0x0 PUSH1 0x20 DUP3 ADD SWAP1 POP DUP2 DUP2 SUB PUSH1 0x0 DUP4 ADD MSTORE PUSH2 0x1518 DUP2 PUSH2 0x14DC JUMP JUMPDEST SWAP1 POP SWAP2 SWAP1 POP JUMP JUMPDEST PUSH32 0x736861726573203D203000000000000000000000000000000000000000000000 PUSH1 0x0 DUP3 ADD MSTORE POP JUMP JUMPDEST PUSH1 0x0 PUSH2 0x1555 PUSH1 0xA DUP4 PUSH2 0x14A2 JUMP JUMPDEST SWAP2 POP PUSH2 0x1560 DUP3 PUSH2 0x151F JUMP JUMPDEST PUSH1 0x20 DUP3 ADD SWAP1 POP SWAP2 SWAP1 POP JUMP JUMPDEST PUSH1 0x0 PUSH1 0x20 DUP3 ADD SWAP1 POP DUP2 DUP2 SUB PUSH1 0x0 DUP4 ADD MSTORE PUSH2 0x1584 DUP2 PUSH2 0x1548 JUMP JUMPDEST SWAP1 POP SWAP2 SWAP1 POP JUMP JUMPDEST PUSH1 0x0 PUSH1 0x20 DUP3 ADD SWAP1 POP PUSH2 0x15A0 PUSH1 0x0 DUP4 ADD DUP5 PUSH2 0x13BB JUMP JUMPDEST SWAP3 SWAP2 POP POP JUMP JUMPDEST PUSH1 0x0 DUP2 MLOAD SWAP1 POP PUSH2 0x15B5 DUP2 PUSH2 0x11B4 JUMP JUMPDEST SWAP3 SWAP2 POP POP JUMP JUMPDEST PUSH1 0x0 PUSH1 0x20 DUP3 DUP5 SUB SLT ISZERO PUSH2 0x15D1 JUMPI PUSH2 0x15D0 PUSH2 0x10CE JUMP JUMPDEST JUMPDEST PUSH1 0x0 PUSH2 0x15DF DUP5 DUP3 DUP6 ADD PUSH2 0x15A6 JUMP JUMPDEST SWAP2 POP POP SWAP3 SWAP2 POP POP JUMP JUMPDEST PUSH32 0x696E76616C696420746F6B656E00000000000000000000000000000000000000 PUSH1 0x0 DUP3 ADD MSTORE POP JUMP JUMPDEST PUSH1 0x0 PUSH2 0x161E PUSH1 0xD DUP4 PUSH2 0x14A2 JUMP JUMPDEST SWAP2 POP PUSH2 0x1629 DUP3 PUSH2 0x15E8 JUMP JUMPDEST PUSH1 0x20 DUP3 ADD SWAP1 POP SWAP2 SWAP1 POP JUMP JUMPDEST PUSH1 0x0 PUSH1 0x20 DUP3 ADD SWAP1 POP DUP2 DUP2 SUB PUSH1 0x0 DUP4 ADD MSTORE PUSH2 0x164D DUP2 PUSH2 0x1611 JUMP JUMPDEST SWAP1 POP SWAP2 SWAP1 POP JUMP JUMPDEST PUSH1 0x0 PUSH1 0x60 DUP3 ADD SWAP1 POP PUSH2 0x1669 PUSH1 0x0 DUP4 ADD DUP7 PUSH2 0x13BB JUMP JUMPDEST PUSH2 0x1676 PUSH1 0x20 DUP4 ADD DUP6 PUSH2 0x13BB JUMP JUMPDEST PUSH2 0x1683 PUSH1 0x40 DUP4 ADD DUP5 PUSH2 0x10A4 JUMP JUMPDEST SWAP5 SWAP4 POP POP POP POP JUMP JUMPDEST PUSH1 0x0 PUSH2 0x1696 DUP3 PUSH2 0x109A JUMP JUMPDEST SWAP2 POP PUSH2 0x16A1 DUP4 PUSH2 0x109A JUMP JUMPDEST SWAP3 POP DUP3 DUP3 ADD SWAP1 POP DUP1 DUP3 GT ISZERO PUSH2 0x16B9 JUMPI PUSH2 0x16B8 PUSH2 0x12B6 JUMP JUMPDEST JUMPDEST SWAP3 SWAP2 POP POP JUMP JUMPDEST PUSH1 0x0 PUSH2 0x16CA DUP3 PUSH2 0x10D3 JUMP JUMPDEST SWAP2 POP PUSH32 0x8000000000000000000000000000000000000000000000000000000000000000 DUP3 SUB PUSH2 0x16FC JUMPI PUSH2 0x16FB PUSH2 0x12B6 JUMP JUMPDEST JUMPDEST DUP2 PUSH1 0x0 SUB SWAP1 POP SWAP2 SWAP1 POP JUMP JUMPDEST PUSH2 0x1710 DUP2 PUSH2 0x10D3 JUMP JUMPDEST DUP3 MSTORE POP POP JUMP JUMPDEST PUSH1 0x0 PUSH1 0x20 DUP3 ADD SWAP1 POP PUSH2 0x172B PUSH1 0x0 DUP4 ADD DUP5 PUSH2 0x1707 JUMP JUMPDEST SWAP3 SWAP2 POP POP JUMP JUMPDEST PUSH32 0x4E487B7100000000000000000000000000000000000000000000000000000000 PUSH1 0x0 MSTORE PUSH1 0x51 PUSH1 0x4 MSTORE PUSH1 0x24 PUSH1 0x0 REVERT INVALID LOG2 PUSH5 0x6970667358 0x22 SLT KECCAK256 0xB1 SDIV 0xC 0xC 0xB9 PUSH1 0xF8 PUSH24 0x8856F0D082217D93E6976B4A8D1D39E515B10007A301B43 PUSH5 0x736F6C6343 STOP ADDMOD EQ STOP CALLER "},"methodIdentifiers":{"addLiquidity(uint256,uint256)":"9cd441da","balanceOf(address)":"70a08231","div(int256,int256)":"43509138","removeLiquidity(uint256)":"9c8f9f23","reserve0()":"443cb4bc","reserve1()":"5a76f25e","swap(address,uint256)":"d004f0f7","token0()":"0dfe1681","token1()":"d21220a7","totalSupply()":"18160ddd"}}}}}