{
  "_format": "hh-sol-artifact-1",
  "contractName": "AMM",
  "sourceName": "contracts/AMM.sol",
  "abi": [
    {
      "inputs": [
        {
          "internalType": "address",
          "name": "_token0",
          "type": "address"
        },
        {
          "internalType": "address",
          "name": "_token1",
          "type": "address"
        }
      ],
      "stateMutability": "nonpayable",
      "type": "constructor"
    },
    {
      "inputs": [
        {
          "internalType": "uint256",
          "name": "x",
          "type": "uint256"
        },
        {
          "internalType": "uint256",
          "name": "y",
          "type": "uint256"
        }
      ],
      "name": "PRBMath_MulDiv18_Overflow",
      "type": "error"
    },
    {
      "inputs": [
        {
          "internalType": "uint256",
          "name": "x",
          "type": "uint256"
        },
        {
          "internalType": "uint256",
          "name": "y",
          "type": "uint256"
        },
        {
          "internalType": "uint256",
          "name": "denominator",
          "type": "uint256"
        }
      ],
      "name": "PRBMath_MulDiv_Overflow",
      "type": "error"
    },
    {
      "inputs": [
        {
          "internalType": "uint256",
          "name": "_amount0",
          "type": "uint256"
        },
        {
          "internalType": "uint256",
          "name": "_amount1",
          "type": "uint256"
        }
      ],
      "name": "addLiquidity",
      "outputs": [
        {
          "internalType": "uint256",
          "name": "shares",
          "type": "uint256"
        }
      ],
      "stateMutability": "nonpayable",
      "type": "function"
    },
    {
      "inputs": [
        {
          "internalType": "address",
          "name": "",
          "type": "address"
        }
      ],
      "name": "balanceOf",
      "outputs": [
        {
          "internalType": "uint256",
          "name": "",
          "type": "uint256"
        }
      ],
      "stateMutability": "view",
      "type": "function"
    },
    {
      "inputs": [
        {
          "internalType": "uint256",
          "name": "_shares",
          "type": "uint256"
        }
      ],
      "name": "removeLiquidity",
      "outputs": [
        {
          "internalType": "uint256",
          "name": "d0",
          "type": "uint256"
        },
        {
          "internalType": "uint256",
          "name": "d1",
          "type": "uint256"
        }
      ],
      "stateMutability": "nonpayable",
      "type": "function"
    },
    {
      "inputs": [],
      "name": "reserve0",
      "outputs": [
        {
          "internalType": "uint256",
          "name": "",
          "type": "uint256"
        }
      ],
      "stateMutability": "view",
      "type": "function"
    },
    {
      "inputs": [],
      "name": "reserve1",
      "outputs": [
        {
          "internalType": "uint256",
          "name": "",
          "type": "uint256"
        }
      ],
      "stateMutability": "view",
      "type": "function"
    },
    {
      "inputs": [
        {
          "internalType": "address",
          "name": "_tokenIn",
          "type": "address"
        },
        {
          "internalType": "uint256",
          "name": "_amountIn",
          "type": "uint256"
        }
      ],
      "name": "swap",
      "outputs": [
        {
          "internalType": "uint256",
          "name": "amountOut",
          "type": "uint256"
        }
      ],
      "stateMutability": "nonpayable",
      "type": "function"
    },
    {
      "inputs": [],
      "name": "token0",
      "outputs": [
        {
          "internalType": "contract IERC20",
          "name": "",
          "type": "address"
        }
      ],
      "stateMutability": "view",
      "type": "function"
    },
    {
      "inputs": [],
      "name": "token1",
      "outputs": [
        {
          "internalType": "contract IERC20",
          "name": "",
          "type": "address"
        }
      ],
      "stateMutability": "view",
      "type": "function"
    },
    {
      "inputs": [],
      "name": "totalSupply",
      "outputs": [
        {
          "internalType": "uint256",
          "name": "",
          "type": "uint256"
        }
      ],
      "stateMutability": "view",
      "type": "function"
    }
  ],
  "bytecode": "0x60c06040523480156200001157600080fd5b50604051620018cb380380620018cb833981810160405281019062000037919062000111565b8173ffffffffffffffffffffffffffffffffffffffff1660808173ffffffffffffffffffffffffffffffffffffffff16815250508073ffffffffffffffffffffffffffffffffffffffff1660a08173ffffffffffffffffffffffffffffffffffffffff1681525050505062000158565b600080fd5b600073ffffffffffffffffffffffffffffffffffffffff82169050919050565b6000620000d982620000ac565b9050919050565b620000eb81620000cc565b8114620000f757600080fd5b50565b6000815190506200010b81620000e0565b92915050565b600080604083850312156200012b576200012a620000a7565b5b60006200013b85828601620000fa565b92505060206200014e85828601620000fa565b9150509250929050565b60805160a0516116f2620001d96000396000818161035c015281816104a40152818161079a0152818161089601528181610983015281816109f10152610c070152600081816101f1015281816102b301528181610403015281816107000152818161084101528181610927015281816109a401526109d001526116f26000f3fe608060405234801561001057600080fd5b50600436106100935760003560e01c806370a082311161006657806370a08231146101105780639c8f9f23146101405780639cd441da14610171578063d004f0f7146101a1578063d21220a7146101d157610093565b80630dfe16811461009857806318160ddd146100b6578063443cb4bc146100d45780635a76f25e146100f2575b600080fd5b6100a06101ef565b6040516100ad9190611171565b60405180910390f35b6100be610213565b6040516100cb91906111a5565b60405180910390f35b6100dc610219565b6040516100e991906111a5565b60405180910390f35b6100fa61021f565b60405161010791906111a5565b60405180910390f35b61012a60048036038101906101259190611203565b610225565b60405161013791906111a5565b60405180910390f35b61015a6004803603810190610155919061125c565b61023d565b604051610168929190611289565b60405180910390f35b61018b600480360381019061018691906112b2565b6103ff565b60405161019891906111a5565b60405180910390f35b6101bb60048036038101906101b691906112f2565b61083d565b6040516101c891906111a5565b60405180910390f35b6101d9610c05565b6040516101e69190611171565b60405180910390f35b7f000000000000000000000000000000000000000000000000000000000000000081565b60025481565b60005481565b60015481565b60036020528060005260406000206000915090505481565b600080600254836000546102519190611361565b61025b91906113d2565b91506002548360015461026e9190611361565b61027891906113d2565b90506102843384610c29565b6102a8826000546102959190611403565b826001546102a39190611403565b610c9c565b6000821115610351577f000000000000000000000000000000000000000000000000000000000000000073ffffffffffffffffffffffffffffffffffffffff1663a9059cbb33846040518363ffffffff1660e01b815260040161030c929190611446565b6020604051808303816000875af115801561032b573d6000803e3d6000fd5b505050506040513d601f19601f8201168201806040525081019061034f91906114a7565b505b60008111156103fa577f000000000000000000000000000000000000000000000000000000000000000073ffffffffffffffffffffffffffffffffffffffff1663a9059cbb33836040518363ffffffff1660e01b81526004016103b5929190611446565b6020604051808303816000875af11580156103d4573d6000803e3d6000fd5b505050506040513d601f19601f820116820180604052508101906103f891906114a7565b505b915091565b60007f000000000000000000000000000000000000000000000000000000000000000073ffffffffffffffffffffffffffffffffffffffff166323b872dd3330866040518463ffffffff1660e01b815260040161045e939291906114d4565b6020604051808303816000875af115801561047d573d6000803e3d6000fd5b505050506040513d601f19601f820116820180604052508101906104a191906114a7565b507f000000000000000000000000000000000000000000000000000000000000000073ffffffffffffffffffffffffffffffffffffffff166323b872dd3330856040518463ffffffff1660e01b81526004016104ff939291906114d4565b6020604051808303816000875af115801561051e573d6000803e3d6000fd5b505050506040513d601f19601f8201168201806040525081019061054291906114a7565b5060006002540361056857610561828461055c9190611361565b610cae565b90506106f1565b600082905060008054905060006001549050600061058f8484610d2890919063ffffffff16565b905060006105a4670de0b6b3a7640000610d54565b905060006106016105bd68056bc75e2d63100000610d54565b6105f36105e4856105d668056bc75e2d63100000610d54565b610d5e90919063ffffffff16565b86610d2890919063ffffffff16565b610d8c90919063ffffffff16565b9050600061065e61062c8461061e68056bc75e2d63100000610d54565b610d5e90919063ffffffff16565b61065061064168056bc75e2d63100000610d54565b87610d2890919063ffffffff16565b610d8c90919063ffffffff16565b905061066a8482610dc1565b801561067c575061067b8483610ddf565b5b6106bb576040517f08c379a00000000000000000000000000000000000000000000000000000000081526004016106b290611568565b60405180910390fd5b60006106c687610dfd565b905060006106d387610dfd565b90506106e58c8c600054600154610e07565b99505050505050505050505b6106fb3382610e4d565b6108377f000000000000000000000000000000000000000000000000000000000000000073ffffffffffffffffffffffffffffffffffffffff166370a08231306040518263ffffffff1660e01b81526004016107579190611588565b602060405180830381865afa158015610774573d6000803e3d6000fd5b505050506040513d601f19601f8201168201806040525081019061079891906115b8565b7f000000000000000000000000000000000000000000000000000000000000000073ffffffffffffffffffffffffffffffffffffffff166370a08231306040518263ffffffff1660e01b81526004016107f19190611588565b602060405180830381865afa15801561080e573d6000803e3d6000fd5b505050506040513d601f19601f8201168201806040525081019061083291906115b8565b610c9c565b92915050565b60007f000000000000000000000000000000000000000000000000000000000000000073ffffffffffffffffffffffffffffffffffffffff168373ffffffffffffffffffffffffffffffffffffffff1614806108e457507f000000000000000000000000000000000000000000000000000000000000000073ffffffffffffffffffffffffffffffffffffffff168373ffffffffffffffffffffffffffffffffffffffff16145b610923576040517f08c379a000000000000000000000000000000000000000000000000000000000815260040161091a90611631565b60405180910390fd5b60007f000000000000000000000000000000000000000000000000000000000000000073ffffffffffffffffffffffffffffffffffffffff168473ffffffffffffffffffffffffffffffffffffffff16149050600080600080846109ce577f00000000000000000000000000000000000000000000000000000000000000007f0000000000000000000000000000000000000000000000000000000000000000600154600054610a17565b7f00000000000000000000000000000000000000000000000000000000000000007f00000000000000000000000000000000000000000000000000000000000000006000546001545b93509350935093508373ffffffffffffffffffffffffffffffffffffffff166323b872dd33308a6040518463ffffffff1660e01b8152600401610a5c939291906114d4565b6020604051808303816000875af1158015610a7b573d6000803e3d6000fd5b505050506040513d601f19601f82011682018060405250810190610a9f91906114a7565b506000828573ffffffffffffffffffffffffffffffffffffffff166370a08231306040518263ffffffff1660e01b8152600401610adc9190611588565b602060405180830381865afa158015610af9573d6000803e3d6000fd5b505050506040513d601f19601f82011682018060405250810190610b1d91906115b8565b610b279190611403565b905080965060008087610b51578884610b409190611403565b8386610b4c9190611651565b610b6a565b8285610b5d9190611651565b8985610b699190611403565b5b91509150610b788282610c9c565b8573ffffffffffffffffffffffffffffffffffffffff1663a9059cbb338b6040518363ffffffff1660e01b8152600401610bb3929190611446565b6020604051808303816000875af1158015610bd2573d6000803e3d6000fd5b505050506040513d601f19601f82011682018060405250810190610bf691906114a7565b50505050505050505092915050565b7f000000000000000000000000000000000000000000000000000000000000000081565b80600360008473ffffffffffffffffffffffffffffffffffffffff1673ffffffffffffffffffffffffffffffffffffffff1681526020019081526020016000206000828254610c789190611403565b925050819055508060026000828254610c919190611403565b925050819055505050565b81600081905550806001819055505050565b60006003821115610d155781905060006001600284610ccd91906113d2565b610cd79190611651565b90505b81811015610d0f578091506002818285610cf491906113d2565b610cfe9190611651565b610d0891906113d2565b9050610cda565b50610d23565b60008214610d2257600190505b5b919050565b6000610d4c610d47610d3985610ec0565b610d4285610ec0565b610eca565b610fb4565b905092915050565b6000819050919050565b6000610d84610d6c83610ec0565b610d7585610ec0565b610d7f9190611651565b610fb4565b905092915050565b6000610db9610db4610d9d85610ec0565b670de0b6b3a7640000610daf86610ec0565b610fbe565b610fb4565b905092915050565b6000610dcc82610ec0565b610dd584610ec0565b1015905092915050565b6000610dea82610ec0565b610df384610ec0565b1115905092915050565b6000819050919050565b6000610e438360025487610e1b9190611361565b610e2591906113d2565b8360025487610e349190611361565b610e3e91906113d2565b6110d8565b9050949350505050565b80600360008473ffffffffffffffffffffffffffffffffffffffff1673ffffffffffffffffffffffffffffffffffffffff1681526020019081526020016000206000828254610e9c9190611651565b925050819055508060026000828254610eb59190611651565b925050819055505050565b6000819050919050565b6000806000801984860984860292508281108382030391505060008103610f0d57670de0b6b3a76400008281610f0357610f026113a3565b5b0492505050610fae565b670de0b6b3a76400008110610f5b5784846040517f5173648d000000000000000000000000000000000000000000000000000000008152600401610f52929190611289565b60405180910390fd5b6000670de0b6b3a764000085870990507faccb18165bd6fe31ae1cf318dc5b51eee0e1ba569b88cd74c1773b91fac106696001620400008060000304018483118403026204000083860304170293505050505b92915050565b6000819050919050565b6000806000801985870985870292508281108382030391505060008103610ff957838281610fef57610fee6113a3565b5b04925050506110d1565b838110611041578585856040517f63a0577800000000000000000000000000000000000000000000000000000000815260040161103893929190611685565b60405180910390fd5b60008486880990508281118203915080830392506000600186190186169050600081870496508185049450600182836000030401905080840285179450600060028860030218905080880260020381029050808802600203810290508088026002038102905080880260020381029050808802600203810290508088026002038102905080860296505050505050505b9392505050565b6000818311156110e857816110ea565b825b905092915050565b600073ffffffffffffffffffffffffffffffffffffffff82169050919050565b6000819050919050565b600061113761113261112d846110f2565b611112565b6110f2565b9050919050565b60006111498261111c565b9050919050565b600061115b8261113e565b9050919050565b61116b81611150565b82525050565b60006020820190506111866000830184611162565b92915050565b6000819050919050565b61119f8161118c565b82525050565b60006020820190506111ba6000830184611196565b92915050565b600080fd5b60006111d0826110f2565b9050919050565b6111e0816111c5565b81146111eb57600080fd5b50565b6000813590506111fd816111d7565b92915050565b600060208284031215611219576112186111c0565b5b6000611227848285016111ee565b91505092915050565b6112398161118c565b811461124457600080fd5b50565b60008135905061125681611230565b92915050565b600060208284031215611272576112716111c0565b5b600061128084828501611247565b91505092915050565b600060408201905061129e6000830185611196565b6112ab6020830184611196565b9392505050565b600080604083850312156112c9576112c86111c0565b5b60006112d785828601611247565b92505060206112e885828601611247565b9150509250929050565b60008060408385031215611309576113086111c0565b5b6000611317858286016111ee565b925050602061132885828601611247565b9150509250929050565b7f4e487b7100000000000000000000000000000000000000000000000000000000600052601160045260246000fd5b600061136c8261118c565b91506113778361118c565b92508282026113858161118c565b9150828204841483151761139c5761139b611332565b5b5092915050565b7f4e487b7100000000000000000000000000000000000000000000000000000000600052601260045260246000fd5b60006113dd8261118c565b91506113e88361118c565b9250826113f8576113f76113a3565b5b828204905092915050565b600061140e8261118c565b91506114198361118c565b925082820390508181111561143157611430611332565b5b92915050565b611440816111c5565b82525050565b600060408201905061145b6000830185611437565b6114686020830184611196565b9392505050565b60008115159050919050565b6114848161146f565b811461148f57600080fd5b50565b6000815190506114a18161147b565b92915050565b6000602082840312156114bd576114bc6111c0565b5b60006114cb84828501611492565b91505092915050565b60006060820190506114e96000830186611437565b6114f66020830185611437565b6115036040830184611196565b949350505050565b600082825260208201905092915050565b7f65786365656473207570706572206f72206c6f77657220626f756e6400000000600082015250565b6000611552601c8361150b565b915061155d8261151c565b602082019050919050565b6000602082019050818103600083015261158181611545565b9050919050565b600060208201905061159d6000830184611437565b92915050565b6000815190506115b281611230565b92915050565b6000602082840312156115ce576115cd6111c0565b5b60006115dc848285016115a3565b91505092915050565b7f696e76616c696420746f6b656e00000000000000000000000000000000000000600082015250565b600061161b600d8361150b565b9150611626826115e5565b602082019050919050565b6000602082019050818103600083015261164a8161160e565b9050919050565b600061165c8261118c565b91506116678361118c565b925082820190508082111561167f5761167e611332565b5b92915050565b600060608201905061169a6000830186611196565b6116a76020830185611196565b6116b46040830184611196565b94935050505056fea2646970667358221220d5e60398db0ddb36f08d18cc0f06300074d16f19bea24fc46a252291c6f2d24064736f6c63430008140033",
  "linkReferences": {},
  "deployedLinkReferences": {}
}