{
  "_format": "hh-sol-artifact-1",
  "contractName": "AMM",
  "sourceName": "contracts/AMM.sol",
  "abi": [
    {
      "inputs": [
        {
          "internalType": "address",
          "name": "_token0",
          "type": "address"
        },
        {
          "internalType": "address",
          "name": "_token1",
          "type": "address"
        }
      ],
      "stateMutability": "nonpayable",
      "type": "constructor"
    },
    {
      "inputs": [
        {
          "internalType": "uint256",
          "name": "x",
          "type": "uint256"
        },
        {
          "internalType": "uint256",
          "name": "y",
          "type": "uint256"
        }
      ],
      "name": "PRBMath_MulDiv18_Overflow",
      "type": "error"
    },
    {
      "inputs": [
        {
          "internalType": "uint256",
          "name": "x",
          "type": "uint256"
        },
        {
          "internalType": "uint256",
          "name": "y",
          "type": "uint256"
        },
        {
          "internalType": "uint256",
          "name": "denominator",
          "type": "uint256"
        }
      ],
      "name": "PRBMath_MulDiv_Overflow",
      "type": "error"
    },
    {
      "inputs": [
        {
          "internalType": "uint256",
          "name": "_amount0",
          "type": "uint256"
        },
        {
          "internalType": "uint256",
          "name": "_amount1",
          "type": "uint256"
        }
      ],
      "name": "addLiquidity",
      "outputs": [
        {
          "internalType": "uint256",
          "name": "shares",
          "type": "uint256"
        }
      ],
      "stateMutability": "nonpayable",
      "type": "function"
    },
    {
      "inputs": [
        {
          "internalType": "address",
          "name": "",
          "type": "address"
        }
      ],
      "name": "balanceOf",
      "outputs": [
        {
          "internalType": "uint256",
          "name": "",
          "type": "uint256"
        }
      ],
      "stateMutability": "view",
      "type": "function"
    },
    {
      "inputs": [
        {
          "internalType": "uint256",
          "name": "_shares",
          "type": "uint256"
        }
      ],
      "name": "removeLiquidity",
      "outputs": [
        {
          "internalType": "uint256",
          "name": "d0",
          "type": "uint256"
        },
        {
          "internalType": "uint256",
          "name": "d1",
          "type": "uint256"
        }
      ],
      "stateMutability": "nonpayable",
      "type": "function"
    },
    {
      "inputs": [],
      "name": "reserve0",
      "outputs": [
        {
          "internalType": "uint256",
          "name": "",
          "type": "uint256"
        }
      ],
      "stateMutability": "view",
      "type": "function"
    },
    {
      "inputs": [],
      "name": "reserve1",
      "outputs": [
        {
          "internalType": "uint256",
          "name": "",
          "type": "uint256"
        }
      ],
      "stateMutability": "view",
      "type": "function"
    },
    {
      "inputs": [
        {
          "internalType": "address",
          "name": "_tokenIn",
          "type": "address"
        },
        {
          "internalType": "uint256",
          "name": "_amountIn",
          "type": "uint256"
        }
      ],
      "name": "swap",
      "outputs": [
        {
          "internalType": "uint256",
          "name": "amountOut",
          "type": "uint256"
        }
      ],
      "stateMutability": "nonpayable",
      "type": "function"
    },
    {
      "inputs": [],
      "name": "testFunction",
      "outputs": [
        {
          "internalType": "uint256",
          "name": "test",
          "type": "uint256"
        }
      ],
      "stateMutability": "nonpayable",
      "type": "function"
    },
    {
      "inputs": [],
      "name": "token0",
      "outputs": [
        {
          "internalType": "contract IERC20",
          "name": "",
          "type": "address"
        }
      ],
      "stateMutability": "view",
      "type": "function"
    },
    {
      "inputs": [],
      "name": "token1",
      "outputs": [
        {
          "internalType": "contract IERC20",
          "name": "",
          "type": "address"
        }
      ],
      "stateMutability": "view",
      "type": "function"
    },
    {
      "inputs": [],
      "name": "totalSupply",
      "outputs": [
        {
          "internalType": "uint256",
          "name": "",
          "type": "uint256"
        }
      ],
      "stateMutability": "view",
      "type": "function"
    }
  ],
  "bytecode": "0x60c06040523480156200001157600080fd5b5060405162001c4a38038062001c4a833981810160405281019062000037919062000111565b8173ffffffffffffffffffffffffffffffffffffffff1660808173ffffffffffffffffffffffffffffffffffffffff16815250508073ffffffffffffffffffffffffffffffffffffffff1660a08173ffffffffffffffffffffffffffffffffffffffff1681525050505062000158565b600080fd5b600073ffffffffffffffffffffffffffffffffffffffff82169050919050565b6000620000d982620000ac565b9050919050565b620000eb81620000cc565b8114620000f757600080fd5b50565b6000815190506200010b81620000e0565b92915050565b600080604083850312156200012b576200012a620000a7565b5b60006200013b85828601620000fa565b92505060206200014e85828601620000fa565b9150509250929050565b60805160a051611a71620001d960003960008181610385015281816104cd0152818161080b01528181610907015281816109f401528181610a620152610c7801526000818161021a015281816102dc0152818161042c01528181610771015281816108b20152818161099801528181610a150152610a410152611a716000f3fe608060405234801561001057600080fd5b506004361061009e5760003560e01c80639c8f9f23116100665780639c8f9f231461014b5780639cd441da1461017c578063d004f0f7146101ac578063d21220a7146101dc578063e16b4a9b146101fa5761009e565b80630dfe1681146100a357806318160ddd146100c1578063443cb4bc146100df5780635a76f25e146100fd57806370a082311461011b575b600080fd5b6100ab610218565b6040516100b891906113b4565b60405180910390f35b6100c961023c565b6040516100d691906113e8565b60405180910390f35b6100e7610242565b6040516100f491906113e8565b60405180910390f35b610105610248565b60405161011291906113e8565b60405180910390f35b61013560048036038101906101309190611446565b61024e565b60405161014291906113e8565b60405180910390f35b6101656004803603810190610160919061149f565b610266565b6040516101739291906114cc565b60405180910390f35b610196600480360381019061019191906114f5565b610428565b6040516101a391906113e8565b60405180910390f35b6101c660048036038101906101c19190611535565b6108ae565b6040516101d391906113e8565b60405180910390f35b6101e4610c76565b6040516101f191906113b4565b60405180910390f35b610202610c9a565b60405161020f91906113e8565b60405180910390f35b7f000000000000000000000000000000000000000000000000000000000000000081565b60025481565b60005481565b60015481565b60036020528060005260406000206000915090505481565b6000806002548360005461027a91906115a4565b6102849190611615565b91506002548360015461029791906115a4565b6102a19190611615565b90506102ad3384610ca3565b6102d1826000546102be9190611646565b826001546102cc9190611646565b610d16565b600082111561037a577f000000000000000000000000000000000000000000000000000000000000000073ffffffffffffffffffffffffffffffffffffffff1663a9059cbb33846040518363ffffffff1660e01b8152600401610335929190611689565b6020604051808303816000875af1158015610354573d6000803e3d6000fd5b505050506040513d601f19601f8201168201806040525081019061037891906116ea565b505b6000811115610423577f000000000000000000000000000000000000000000000000000000000000000073ffffffffffffffffffffffffffffffffffffffff1663a9059cbb33836040518363ffffffff1660e01b81526004016103de929190611689565b6020604051808303816000875af11580156103fd573d6000803e3d6000fd5b505050506040513d601f19601f8201168201806040525081019061042191906116ea565b505b915091565b60007f000000000000000000000000000000000000000000000000000000000000000073ffffffffffffffffffffffffffffffffffffffff166323b872dd3330866040518463ffffffff1660e01b815260040161048793929190611717565b6020604051808303816000875af11580156104a6573d6000803e3d6000fd5b505050506040513d601f19601f820116820180604052508101906104ca91906116ea565b507f000000000000000000000000000000000000000000000000000000000000000073ffffffffffffffffffffffffffffffffffffffff166323b872dd3330856040518463ffffffff1660e01b815260040161052893929190611717565b6020604051808303816000875af1158015610547573d6000803e3d6000fd5b505050506040513d601f19601f8201168201806040525081019061056b91906116ea565b506000600254036105915761058a828461058591906115a4565b610d6f565b9050610716565b60008290506000805490506000600154905060006105b88484610de990919063ffffffff16565b905060006105cd670de0b6b3a7640000610e15565b9050600061062a6105e668056bc75e2d63100000610e15565b61061c61060d856105ff68056bc75e2d63100000610e15565b610e1f90919063ffffffff16565b86610de990919063ffffffff16565b610e4d90919063ffffffff16565b905060006106876106558461064768056bc75e2d63100000610e15565b610e1f90919063ffffffff16565b61067961066a68056bc75e2d63100000610e15565b87610de990919063ffffffff16565b610e4d90919063ffffffff16565b90506106938482610e82565b80156106a557506106a48483610ea0565b5b6106e4576040517f08c379a00000000000000000000000000000000000000000000000000000000081526004016106db906117ab565b60405180910390fd5b60006106ef87610ebe565b905060006106fc87610ebe565b905061070a8c8c8484610ec8565b99505050505050505050505b61071f81610f0e565b60008111610762576040517f08c379a000000000000000000000000000000000000000000000000000000000815260040161075990611817565b60405180910390fd5b61076c3382610fa7565b6108a87f000000000000000000000000000000000000000000000000000000000000000073ffffffffffffffffffffffffffffffffffffffff166370a08231306040518263ffffffff1660e01b81526004016107c89190611837565b602060405180830381865afa1580156107e5573d6000803e3d6000fd5b505050506040513d601f19601f820116820180604052508101906108099190611867565b7f000000000000000000000000000000000000000000000000000000000000000073ffffffffffffffffffffffffffffffffffffffff166370a08231306040518263ffffffff1660e01b81526004016108629190611837565b602060405180830381865afa15801561087f573d6000803e3d6000fd5b505050506040513d601f19601f820116820180604052508101906108a39190611867565b610d16565b92915050565b60007f000000000000000000000000000000000000000000000000000000000000000073ffffffffffffffffffffffffffffffffffffffff168373ffffffffffffffffffffffffffffffffffffffff16148061095557507f000000000000000000000000000000000000000000000000000000000000000073ffffffffffffffffffffffffffffffffffffffff168373ffffffffffffffffffffffffffffffffffffffff16145b610994576040517f08c379a000000000000000000000000000000000000000000000000000000000815260040161098b906118e0565b60405180910390fd5b60007f000000000000000000000000000000000000000000000000000000000000000073ffffffffffffffffffffffffffffffffffffffff168473ffffffffffffffffffffffffffffffffffffffff1614905060008060008084610a3f577f00000000000000000000000000000000000000000000000000000000000000007f0000000000000000000000000000000000000000000000000000000000000000600154600054610a88565b7f00000000000000000000000000000000000000000000000000000000000000007f00000000000000000000000000000000000000000000000000000000000000006000546001545b93509350935093508373ffffffffffffffffffffffffffffffffffffffff166323b872dd33308a6040518463ffffffff1660e01b8152600401610acd93929190611717565b6020604051808303816000875af1158015610aec573d6000803e3d6000fd5b505050506040513d601f19601f82011682018060405250810190610b1091906116ea565b506000828573ffffffffffffffffffffffffffffffffffffffff166370a08231306040518263ffffffff1660e01b8152600401610b4d9190611837565b602060405180830381865afa158015610b6a573d6000803e3d6000fd5b505050506040513d601f19601f82011682018060405250810190610b8e9190611867565b610b989190611646565b905080965060008087610bc2578884610bb19190611646565b8386610bbd9190611900565b610bdb565b8285610bce9190611900565b8985610bda9190611646565b5b91509150610be98282610d16565b8573ffffffffffffffffffffffffffffffffffffffff1663a9059cbb338b6040518363ffffffff1660e01b8152600401610c24929190611689565b6020604051808303816000875af1158015610c43573d6000803e3d6000fd5b505050506040513d601f19601f82011682018060405250810190610c6791906116ea565b50505050505050505092915050565b7f000000000000000000000000000000000000000000000000000000000000000081565b60006001905090565b80600360008473ffffffffffffffffffffffffffffffffffffffff1673ffffffffffffffffffffffffffffffffffffffff1681526020019081526020016000206000828254610cf29190611646565b925050819055508060026000828254610d0b9190611646565b925050819055505050565b610d546040518060400160405280600a81526020017f757064617465206869740000000000000000000000000000000000000000000081525061101a565b610d5d82610f0e565b81600081905550806001819055505050565b60006003821115610dd65781905060006001600284610d8e9190611615565b610d989190611900565b90505b81811015610dd0578091506002818285610db59190611615565b610dbf9190611900565b610dc99190611615565b9050610d9b565b50610de4565b60008214610de357600190505b5b919050565b6000610e0d610e08610dfa856110b3565b610e03856110b3565b6110bd565b6111a7565b905092915050565b6000819050919050565b6000610e45610e2d836110b3565b610e36856110b3565b610e409190611900565b6111a7565b905092915050565b6000610e7a610e75610e5e856110b3565b670de0b6b3a7640000610e70866110b3565b6111b1565b6111a7565b905092915050565b6000610e8d826110b3565b610e96846110b3565b1015905092915050565b6000610eab826110b3565b610eb4846110b3565b1115905092915050565b6000819050919050565b6000610f048360025487610edc91906115a4565b610ee69190611615565b8360025487610ef591906115a4565b610eff9190611615565b6112cb565b9050949350505050565b610fa481604051602401610f2291906113e8565b6040516020818303038152906040527ff82c50f1000000000000000000000000000000000000000000000000000000007bffffffffffffffffffffffffffffffffffffffffffffffffffffffff19166020820180517bffffffffffffffffffffffffffffffffffffffffffffffffffffffff83818316178352505050506112e5565b50565b80600360008473ffffffffffffffffffffffffffffffffffffffff1673ffffffffffffffffffffffffffffffffffffffff1681526020019081526020016000206000828254610ff69190611900565b92505081905550806002600082825461100f9190611900565b925050819055505050565b6110b08160405160240161102e91906119b3565b6040516020818303038152906040527f41304fac000000000000000000000000000000000000000000000000000000007bffffffffffffffffffffffffffffffffffffffffffffffffffffffff19166020820180517bffffffffffffffffffffffffffffffffffffffffffffffffffffffff83818316178352505050506112e5565b50565b6000819050919050565b600080600080198486098486029250828110838203039150506000810361110057670de0b6b3a764000082816110f6576110f56115e6565b5b04925050506111a1565b670de0b6b3a7640000811061114e5784846040517f5173648d0000000000000000000000000000000000000000000000000000000081526004016111459291906114cc565b60405180910390fd5b6000670de0b6b3a764000085870990507faccb18165bd6fe31ae1cf318dc5b51eee0e1ba569b88cd74c1773b91fac106696001620400008060000304018483118403026204000083860304170293505050505b92915050565b6000819050919050565b60008060008019858709858702925082811083820303915050600081036111ec578382816111e2576111e16115e6565b5b04925050506112c4565b838110611234578585856040517f63a0577800000000000000000000000000000000000000000000000000000000815260040161122b939291906119d5565b60405180910390fd5b60008486880990508281118203915080830392506000600186190186169050600081870496508185049450600182836000030401905080840285179450600060028860030218905080880260020381029050808802600203810290508088026002038102905080880260020381029050808802600203810290508088026002038102905080860296505050505050505b9392505050565b6000818311156112db57816112dd565b825b905092915050565b6112fc816112f46112ff611320565b63ffffffff16565b50565b60006a636f6e736f6c652e6c6f679050600080835160208501845afa505050565b61132b819050919050565b611333611a0c565b565b600073ffffffffffffffffffffffffffffffffffffffff82169050919050565b6000819050919050565b600061137a61137561137084611335565b611355565b611335565b9050919050565b600061138c8261135f565b9050919050565b600061139e82611381565b9050919050565b6113ae81611393565b82525050565b60006020820190506113c960008301846113a5565b92915050565b6000819050919050565b6113e2816113cf565b82525050565b60006020820190506113fd60008301846113d9565b92915050565b600080fd5b600061141382611335565b9050919050565b61142381611408565b811461142e57600080fd5b50565b6000813590506114408161141a565b92915050565b60006020828403121561145c5761145b611403565b5b600061146a84828501611431565b91505092915050565b61147c816113cf565b811461148757600080fd5b50565b60008135905061149981611473565b92915050565b6000602082840312156114b5576114b4611403565b5b60006114c38482850161148a565b91505092915050565b60006040820190506114e160008301856113d9565b6114ee60208301846113d9565b9392505050565b6000806040838503121561150c5761150b611403565b5b600061151a8582860161148a565b925050602061152b8582860161148a565b9150509250929050565b6000806040838503121561154c5761154b611403565b5b600061155a85828601611431565b925050602061156b8582860161148a565b9150509250929050565b7f4e487b7100000000000000000000000000000000000000000000000000000000600052601160045260246000fd5b60006115af826113cf565b91506115ba836113cf565b92508282026115c8816113cf565b915082820484148315176115df576115de611575565b5b5092915050565b7f4e487b7100000000000000000000000000000000000000000000000000000000600052601260045260246000fd5b6000611620826113cf565b915061162b836113cf565b92508261163b5761163a6115e6565b5b828204905092915050565b6000611651826113cf565b915061165c836113cf565b925082820390508181111561167457611673611575565b5b92915050565b61168381611408565b82525050565b600060408201905061169e600083018561167a565b6116ab60208301846113d9565b9392505050565b60008115159050919050565b6116c7816116b2565b81146116d257600080fd5b50565b6000815190506116e4816116be565b92915050565b600060208284031215611700576116ff611403565b5b600061170e848285016116d5565b91505092915050565b600060608201905061172c600083018661167a565b611739602083018561167a565b61174660408301846113d9565b949350505050565b600082825260208201905092915050565b7f65786365656473207570706572206f72206c6f77657220626f756e6400000000600082015250565b6000611795601c8361174e565b91506117a08261175f565b602082019050919050565b600060208201905081810360008301526117c481611788565b9050919050565b7f736861726573203d203000000000000000000000000000000000000000000000600082015250565b6000611801600a8361174e565b915061180c826117cb565b602082019050919050565b60006020820190508181036000830152611830816117f4565b9050919050565b600060208201905061184c600083018461167a565b92915050565b60008151905061186181611473565b92915050565b60006020828403121561187d5761187c611403565b5b600061188b84828501611852565b91505092915050565b7f696e76616c696420746f6b656e00000000000000000000000000000000000000600082015250565b60006118ca600d8361174e565b91506118d582611894565b602082019050919050565b600060208201905081810360008301526118f9816118bd565b9050919050565b600061190b826113cf565b9150611916836113cf565b925082820190508082111561192e5761192d611575565b5b92915050565b600081519050919050565b60005b8381101561195d578082015181840152602081019050611942565b60008484015250505050565b6000601f19601f8301169050919050565b600061198582611934565b61198f818561174e565b935061199f81856020860161193f565b6119a881611969565b840191505092915050565b600060208201905081810360008301526119cd818461197a565b905092915050565b60006060820190506119ea60008301866113d9565b6119f760208301856113d9565b611a0460408301846113d9565b949350505050565b7f4e487b7100000000000000000000000000000000000000000000000000000000600052605160045260246000fdfea2646970667358221220d01e0d652d6c8c0de268e635ef109b754d28f6261698a8b1333d99c3555e343064736f6c63430008140033",
  "linkReferences": {},
  "deployedLinkReferences": {}
}